:100000000C949A1B0C94C41B0C94C41B0C94C41B1E
:100010000C94C41B0C94C41B0C94C41B0C94C41BE4
:100020000C94C41B0C94C41B0C94C41B0C94C41BD4
:100030000C94C41B0C94CC670C94C41B0C94C41B70
:100040000C94C41B0C9411A10C9457AE0C94C41BBB
:100050000C94143D0C94C41B0C94C41B0C94C41B32
:100060000C94C41B0C94C41B0C94C41B0C94C41B94
:100070000C94C41B0C94C41B0C94C41B0C94C41B84
:100080000C94C41B0C94C41B0C94C41B8BAC8EAC82
:1000900081AC85ACA5ACA5AC92AC96AC9CACA0AC4C
:1000A000C6ADCBADD0ADDAAD08AE08AEE4ADECADCB
:1000B000F4ADFEAD76D54FD486D4B2D586D486D4F1
:1000C00086D486D486D486D486D486D486D486D460
:1000D00086D486D486D486D486D486D486D486D450
:1000E00086D486D486D486D486D486D486D486D440
:1000F000ACD586D486D486D486D486D486D486D409
:1001000086D485D586D486D486D486D486D486D41F
:1001100086D486D486D486D4C9D583D4084AD73B1E
:100120003BCE016E84BCBFFDC12F3D6C74319ABDC6
:1001300056833DDA3D00C77F11BED9E4BB4C3E91EA
:100140006BAAAABE000000803F05A84CCDB2D44ED9
:10015000B93836A9020C50B9918688083CA6AAAADB
:100160002ABE000000803F004E414E494E4954597E
:10017000494E46CDCCCC3D0AD7233C17B7D1387772
:10018000CC2B329595E6241FB14F0A000020410088
:1001900000C84200401C4620BCBE4CCA1B0E5AAED2
:1001A000C59D7400407A10F35A00A0724E180900E1
:1001B00010A5D4E80000E87648170000E40B5402CC
:1001C0000000CA9A3B000000E1F505000080969807
:1001D00000000040420F000000A086010000001057
:1001E0002700000000E80300000000640000000099
:1001F000000A00000000000100000000002C76D87A
:1002000088DC674F0823DFC1DFAE59E1B1B796E55F
:10021000E3E453C63AE651997696E8E6C28426EBC3
:10022000898C9B62ED407C6FFCEFBC9C9F40F2BAD6
:10023000A56FA5F490055A2AF75C936B6CF9676D6E
:10024000C11BFCE0E40D47FEF520E6B500D0ED90C3
:100250002E0300943577050080841E080000204E90
:100260000A000000C80C333333330F986E12831129
:1002700041EF8D2114893BE65516CFFEE6DB18D100
:10028000844B381BF77C1D901DA4BBE424203284D2
:10029000725E228100C9F124ECA1E53D27434F4D58
:1002A0004D554E49434154494F4E004452595255C1
:1002B0004E004552524F525300494E464F0045435F
:1002C000484F0020746F6F206C6F6E6720657874E4
:1002D000727573696F6E2070726576656E74656491
:1002E0000A0020636F6C6420657874727573696F9F
:1002F0006E2070726576656E7465640A0047322FF1
:1003000047332062616420706172616D657465724B
:10031000730A00536C6565702E2E2E00456E646561
:10032000722D332072656164792E00526573756D8C
:10033000696E67207072696E7400436C69636B202C
:10034000746F20726573756D652E2E2E004E6F20B2
:100350006D6F76652E00456E642066696C65206C55
:100360006973740A00426567696E2066696C65206E
:100370006C6973740A005446207072696E74696EF9
:1003800067206279746520004E6F74205446207097
:1003900072696E74696E670A0046696C65206465EF
:1003A0006C657465643A0044656C6574696F6E20B1
:1003B0006661696C65642C2046696C653A20006F43
:1003C00070656E206661696C65642C2046696C6599
:1003D0003A20002569730025696D20256973002581
:1003E00069682025696D20256973002569642025C9
:1003F00069682025696D20256973002569792025A4
:100400006964202569682025696D2025697300507D
:1004100072696E742074696D653A200050726F7451
:1004200065637465642050696E0A0045787472755E
:1004300064657220257300456E6465722D332072E9
:10044000656164792E00BE02B902B202AB029D0260
:100450006F66660044454255473A004B494C4C454F
:10046000442E20004D3131332053006F6B00456E18
:100470006465722D33204F66662E004361703A45E5
:100480004D455247454E43595F5041525345523AAC
:10049000300A004361703A434153455F4C49474835
:1004A000545F4252494748544E4553533A300A002C
:1004B0004361703A544F47474C455F4C4947485455
:1004C000533A300A004361703A534F4654574152F1
:1004D000455F504F5745523A300A004361703A4CDD
:1004E0004556454C494E475F444154413A300A0015
:1004F0004361703A5A5F50524F42453A300A0043C6
:1005000061703A4155544F4C4556454C3A300A00BB
:100510004361703A5052494E545F4A4F423A310A51
:10052000004361703A50524F47524553533A300A94
:10053000004361703A4155544F5245504F52545FF9
:1005400054454D503A310A004361703A4545505286
:100550004F4D3A310A004649524D574152455F4E80
:10056000414D453A4D61726C696E20437265616C14
:1005700069747920334420534F555243455F434FAC
:1005800044455F55524C3A68747470733A2F2F6724
:1005900069746875622E636F6D2F4D61726C696E40
:1005A0004669726D776172652F4D61726C696E205C
:1005B00050524F544F434F4C5F56455253494F4E44
:1005C0003A312E30204D414348494E455F545950F1
:1005D000453A456E6465722D332045585452554452
:1005E00045525F434F554E543A3120555549443A90
:1005F00063656465326132662D343161322D343782
:1006000034382D396231322D6335356336326633F5
:10061000363766660A002F2F20004D3134352053BF
:100620003C696E6465783E206F7574206F66207239
:10063000616E67652028302D31290A005365747476
:10064000696E672054726176656C20416363656CE6
:1006500065726174696F6E3A200053657474696ED7
:1006600067205265747261637420416363656C65D1
:10067000726174696F6E3A200053657474696E67B5
:10068000205072696E7420416363656C6572617499
:10069000696F6E3A200053657474696E67205072FA
:1006A000696E7420616E642054726176656C2041BD
:1006B0006363656C65726174696F6E3A2000205ADD
:1006C00000205900580020204D61783A2000205A1F
:1006D00000205900580020204D696E3A20004F6ECE
:1006E00020004F666600536F667420656E647374F5
:1006F0006F70733A200000010F150E12FF16170ECF
:1007000013FF03021A14FFFFFF0C04FFFFFF010099
:100710000EFFFF0C190DFF18FFFFFFFFFFFF206406
:100720003A0020693A0020703A0043290A006162C9
:100730006C656420286D696E2074656D70200043BF
:100740006F6C64206578747275646573206172657E
:1007500020004F666673657473206170706C696504
:1007600064004572723A20546F6F206661722100F6
:10077000546F6F206661722066726F6D20726566BD
:100780006572656E636520706F696E740A004E6FE6
:100790002063617365206C696768740A0041637443
:1007A0006976652045787472756465723A200055E3
:1007B0006E6B6E6F776E20636F6D6D616E643A2045
:1007C000220062696E004D31313720494E56414C4E
:1007D000494420444154412E004D3131372050725C
:1007E000696E74696E672E2E2E004730205A25736D
:1007F00000473238205830205930004730205A25E1
:100800007300473932205A257320452573006269E9
:100810006E002020506C616E6E6572427566666572
:100820007242797465733A20002046726565204DE6
:10083000656D6F72793A2000436F6D70696C656405
:100840003A204A616E20323720323031390A002096
:100850007C20417574686F723A2028456E64657219
:100860002D33290A00323031382D31312D32380004
:10087000204C61737420557064617465643A200083
:10088000312E312E360A004D61726C696E00205394
:100890006F6674776172652052657365740A002013
:1008A0005761746368646F672052657365740A00EA
:1008B0002042726F776E206F757420526573657475
:1008C0000A002045787465726E616C20526573650C
:1008D000740A00506F77657255700A007374617204
:1008E000740A006572726F722077726974696E673C
:1008F00020746F2066696C650A00456E6473746FBE
:100900007073202563202563202563202563002044
:100910005A3A0020593A0020583A00656E647374C0
:100920006F7073206869743A2000446F6E6520739D
:100930006176696E672066696C652E0A004D3239F2
:10094000004B494C4C45442E200053544F505045C9
:10095000442E20005072696E7465722073746F703B
:100960007065642064756520746F206572726F72A3
:10097000732E2046697820746865206572726F72E4
:1009800020616E6420757365204D39393920746F8C
:1009900020726573746172742E202854656D7065C1
:1009A0007261747572652069732072657365742E47
:1009B00020536574206974206166746572207265C5
:1009C0007374617274696E67290A004E6F204C69F6
:1009D0006E65204E756D626572207769746820635C
:1009E0006865636B73756D2C204C617374204C6962
:1009F0006E653A20004E6F20436865636B73756DBA
:100A00002077697468206C696E65206E756D62650B
:100A1000722C204C617374204C696E653A2000631F
:100A20006865636B73756D206D69736D6174636860
:100A30002C204C617374204C696E653A20004C691F
:100A40006E65204E756D626572206973206E6F74DD
:100A5000204C617374204C696E65204E756D626523
:100A6000722B312C204C617374204C696E653A20D6
:100A7000004D313130004D3331004D383420582095
:100A800059205A20450054462072656164206572E1
:100A9000726F720A00446F6E65207072696E7469BD
:100AA0006E672066696C650A0020496E76616C6924
:100AB000642065787472756465722000000000001F
:100AC000000000000000000000006B4300006B43CA
:100AD00000007A434D36303020486F74656E6420D4
:100AE000746F6F20636F6C6420746F206368616E35
:100AF00067652066696C616D656E740A0020746FAD
:100B00006F206C6F6E6720657874727573696F6E95
:100B10002070726576656E7465640A0020636F6C80
:100B20006420657874727573696F6E207072657673
:100B3000656E7465640A00FFFFFFFFFFFFFFFFFFA4
:100B4000FFFFFFFFFFFFFFFFFFFFFFFFFFFFFFFFB5
:100B5000FFFFFFFFFFFFFFFFFFFFFFFFFFFFFFFFA5
:100B6000FFFFFFFFFFFFFFFFFFFFFFFFFFFFEFFFA5
:100B7000FFFFFFFFFFFFFFFFFFFFFFFFFFFFEFEFA5
:100B8000FFFFFFFFFFFFFFFFFFFFFFFFFFFFE7DFAD
:100B9000FFFFFFFFFFFFFFFFFFFFFFFFFFFFE7DF9D
:100BA000FFFFFFFFFFFFFFFFFFFFFFFFFFFFE3DF91
:100BB000FFFFFFFFFFFFFFFFFFFFFFFFFFFFF3CF81
:100BC000FFFFFFFFFFFFFFFFFFFFFFFFFFE1E1CFA1
:100BD000FFFFFFFFFFFFFFFFFFFFFFFE78000003A7
:100BE000DDFFFFFFFFFFFFFFFFFFFEFF807E000135
:100BF000EEFFFFFFFFFFFFFFFFFFFE7DCFFC0000CA
:100C0000F77FFFFFFFFFFFFFFFFFFF8E06000000E3
:100C10007BBFFFFFFFFFFFFFFFFFFFC000000000E3
:100C20007DDFFFFFFFFFFFFFFFFFFFFC01FE000076
:100C30003EE7FFFFFFFFFFFFFFFFFFFFFFFC00039B
:100C40001F73FFFFFFFFFFFFFFFFFFFFFFF8000124
:100C50008F81FFFFFFFFFFFFFFFFFFFFFFE00000AF
:100C600083F9FFFFFFFFFFFFFFFFFFFFFF00FC0017
:100C700000F0FFFFFFFFFFFFFFFFFFFFE00FFFC0E0
:100C80000000FFFFFFFFFFFFFFFFFFFE03FFFFC0AE
:100C90000000FFFFFFFFFFFFFFFFFFFFFFFFF90067
:100CA0000000FFFFFFFFFFFFFFFFFFFFFFFFFC0054
:100CB00007C0FFFFFFFFFFFFFFFFFFFFFFFFFF007A
:100CC00007E0FFFFFFFFFFFFFFFFFFFFFFFFFFE06A
:100CD00007F1FFFFFFFFFFFFFFFFFFFFFFFFFFFC2D
:100CE00007F9FFFFFFFFFFFFFFFFFFFFFFFFFFFF12
:100CF00003F9FFFFFFFFFFFFFFFFFFFFFFFFFFFF06
:100D000083F9FFFFFFFFFFFFFFFFFFFFFFFFFFFF75
:100D1000C3FFFFFFFFFFFFFFFFFFFFFFFFFFFFFF1F
:100D2000E1FFFFFFFFFFFFFFFFFFFFFFFFFFFFFFF1
:100D3000F0BFFFFFFFFFFFFFFFFFFFFFFFFFFFFB16
:100D4000F83FFFFFFFFFFFFFFFFFFFFFFFFFFFF980
:100D5000F83FFFFFFFFFFFFFFFFFFFFFFFFFFF7EEB
:100D6000F0FFFFFFFFFFFFFFFFFFFFFFFFFFFF8E13
:100D700003FFFFFFFFFFFFFFFFFFFFFFFFFFFFE09E
:100D80001FFFFFFFFFFFFFFFFFFFFFFFFFFFFFFF53
:100D9000FFFFFFFFFFFFFFFFFFFFFFFFFFFFFFFF63
:100DA000FFFFFFFFFFFFFFFFFFFFFFFFFFFFFFFF53
:100DB000FF7FFFFFFFFFFFFFFFFFFF00007FFFFF41
:100DC000F87FFFFFFFFFFFFFFFFFFF80007FFFFFB8
:100DD000E07FFFFFFFFFFFFFFFFFFFC3FCFFFFFF01
:100DE000F8FFFFFFFFFFFFFFFFFFFFC3FCFFFFFF59
:100DF000F8FFFFFFFFFFFFFFFFFFFF87FDFFFFFF84
:100E0000F1FFFFFFFFFFFFFFFFFFFF87FFFFFFFF78
:100E1000F1FFFFFFFFFFFFFFFFFFFF0FE7F30FFCF7
:100E200023FC3FFFFFFFFFFFFFFFFF0FEF8007F0F7
:100E300003F01E007FFFFFFFFFFFFE1FCF8187C76C
:100E400087C70C007FFFFFFFFFFFFE001FC7C78F94
:100E5000C79F0F0CFFFFFFFFFFFFFE001F878F1FC5
:100E60008F1F0F1FFFFFFFFFFFFFFC3F9F8F8F1F95
:100E70008E001E3FFFFFFFFFFFFFFC7F3F0F1E3F67
:100E80001E3FFE3FFFFFFFFFFFFFF87FFF1F1C3FDE
:100E90001C7FFC7FFFFFFFFFFFFFF8FFFF1E1C7E94
:100EA0001C7FFC7FFFFFFFFFFFFFF0FFCE3E3C7E7D
:100EB0003C7FB8FFFFFFFFFFFFFFF0FF9E3C387C49
:100EC000387E78FFFFFFFFFFFFFFE1FF3C7C787C6F
:100ED000783CF1FFFFFFFFFFFFFFE1F83878781063
:100EE0001801F1FFFFFFFFFFFFFF000060203C0043
:100EF0007C07807FFFFFFFFFFFFFFFFFFFFFFE1F5D
:100F0000FE1FFFFFFFFFFFFFFFFFFFFFFFFFFFFFD2
:100F1000FFFFFFFFFFFFFFFFFFFFFFFFFFFFFFFFE1
:100F2000FFFFFFFFFFFFFFFFFFFFFFFFFFFFFFFFD1
:100F3000FFFFFFFFFFFFFF25753A253032750025C3
:100F40003032753A253032750025756420253032EF
:100F5000753A25303275005A0059005800092000B2
:100F6000000000000000000000000000003FFFF053
:100F700000000000000000000000000000380070C9
:100F80000000000000000000000000000030FC3005
:100F90000000000000000000000000000020FC1025
:100FA0000000000000000000000000000020781099
:100FB00000000000000000000000000000203010D1
:100FC000000000000000000000000000002C00D025
:100FD000F80180000C1FE00000104100002E31D00D
:100FE00048008000123FF00000082080002F7BD0D6
:100FF00043C38CD0023FF00000082080002F7BD03C
:1010000071249267CC3FF00000104100002E31D0D7
:1010100041249E40021FE00000208200002C00D0EE
:1010200049249040121FE0000041040000203010CD
:10103000FBB3CEE00C3FF00000410400002078102C
:1010400000000000003FF000002082000020FC10A3
:1010500000000000003FF000001041000030FC30B4
:1010600000000000000FC000000000000038007009
:10107000000000000007800000FFFFC0003FFFF0FD
:10108000000000000003000000FFFFC0000000009F
:10109000000000000000000000000000003FFFF022
:1010A0000000000000000000000000000038007098
:1010B0000000000000000000000000000033873046
:1010C00000000000000000000000000000278790E2
:1010D000000000000000000000000000002F87D08A
:1010E000000000000000000000000000002F87D07A
:1010F000000000000000000000000000002F03D0EE
:10110000F80180000C1FE000000820800020301053
:1011100048008000123FF0000004104000207810CA
:1011200043C38CD0023FF000000410400020781030
:1011300071249267CC3FF00000082080002030101E
:1011400041249E40021FE00000104100002F03D008
:1011500049249040121FE00000208200002F87D019
:10116000FBB3CEE00C3FF00000208200002F87D0C0
:1011700000000000003FF0000010410000278790B1
:1011800000000000003FF00000082080003387309E
:1011900000000000000FC0000000000000380070D8
:1011A000000000000007800000FFFFC0003FFFF0CC
:1011B000000000000003000000FFFFC0000000006E
:1011C0005072696E742070617573656400473120D8
:1011D000463132303020583020593000004730201E
:1011E0005A2573004D31303920532569004D313473
:1011F0003020532569004D313036205332353500CB
:101200004D31303920532569004D31393020532577
:1012100069005072696E742061626F727465640057
:10122000526573756D65207072696E740053746FCA
:1012300070207072696E7400506F7765722D4C6FFC
:101240007373205265636F7665727900496E6974B5
:101250002E2054462063617264004D3231004E6F7F
:101260002054462063617264004368616E676520A4
:1012700054462063617264004D3231005072696ED1
:10128000742066726F6D2054460053746F70207026
:1012900072696E740041626F7574205072696E7469
:1012A000657200526573756D65207072696E7400A9
:1012B0005061757365207072696E740053746F703D
:1012C000207072696E7400526573756D652070725E
:1012D000696E74005061757365207072696E740078
:1012E000436F6E74726F6C0050726570617265004E
:1012F00054756E6500496E666F2073637265656E26
:10130000004261627973746570205A004D36303046
:10131000204230004368616E67652066696C616DCC
:10132000656E74004261627973746570205A00467C
:101330006C6F7700466C6F7700466C6F7700466184
:101340006E2073706565640046616E20737065651C
:10135000640046616E2073706565640042656400D8
:1013600042656400426564004E6F7A7A6C65004E97
:101370006F7A7A6C65004E6F7A7A6C65005370658F
:101380006564005370656564005370656564004D65
:1013900061696E0057726974696E6720746F2066A8
:1013A000696C653A20006F70656E206661696C65D6
:1013B000642C2046696C653A20006F70656E20666B
:1013C00061696C65642C2046696C653A2000466949
:1013D0006C652073656C65637465640A00205369ED
:1013E0007A653A200046696C65206F70656E6564A9
:1013F0003A20006F70656E206661696C65642C2010
:1014000046696C653A20002066696C653A20004E9A
:101410006F7720002220706F730022207061726548
:101420006E743A2200535542524F5554494E45204E
:1014300043414C4C207461726765743A22004B49F9
:101440004C4C45442E2000747279696E6720746F8D
:101450002063616C6C207375622D67636F64652017
:1014600066696C6573207769746820746F6F206D8E
:10147000616E79206C6576656C732E204D41582025
:101480006C6576656C2069733A0043616E6E6F74AB
:10149000206F70656E207375626469722000544617
:1014A0002063617264206F6B0A006F70656E526F0B
:1014B0006F74206661696C65640A00766F6C756D87
:1014C000652E696E6974206661696C65640A004501
:1014D00072726F723A00544620696E6974206661B8
:1014E000696C0A006175746F25692E67004D32348E
:1014F000004D32332025730024F4D43050C38E20A5
:10150000C2A24017828B7011127A910D816CD90A98
:10151000A861E108C7586607615143061E4B5D0587
:10152000C145A7041A411104093D980371393103DB
:101530004036DB0265339102D4305402802E1D0206
:10154000632CEE01752AC501B028A0011027810186
:101550008F2564012B244B01E0223401AC211F01B3
:101560008D200D01801FFC00841EED00971DDF0003
:10157000B81CD200E61BC600201BBC00641AB200D7
:10158000B219A8000A19A0006A189900D117910091
:1015900040178B00B516840031167E00B315790014
:1015A0003A157300C7146F0058146A00EE136600F2
:1015B0008813630025135E00C7125B006C1257008E
:1015C00015125400C111510070114F0021114B0030
:1015D000D61049008D10470046104400021042000A
:1015E000C00F4000800F3E00420F3C00060F3B0042
:1015F000CB0E3800930E37005C0E3500270E3400FA
:10160000F30D3200C10D3100900D3000600D2E0041
:10161000320D2D00050D2C00D90C2B00AE0C29002D
:10162000850C29005C0C2700350C27000E0C2600C9
:10163000E80B2400C40B2400A00B23007D0B230027
:101640005A0B2100390B2100180B2000F80A1F004B
:10165000D90A1E00BB0A1E009D0A1D00800A1D003B
:10166000630A1C00470A1B002C0A1B00110A1A00FF
:10167000F7091A00DD091900C4091900AB0919009E
:10168000920917007B091800630917004C0916001E
:1016900036091600200916000A091500F50815007C
:1016A000E0081400CC081400B8081400A4081400C2
:1016B000900813007D0812006B08130058081200F0
:1016C0004608120034081100230811001208110006
:1016D00001081100F0071000E0071000D00710000B
:1016E000C0071000B0070F00A107100091070E00FF
:1016F00083070F0074070F0065070E0057070E00E1
:1017000049070E003B070D002E070E0020070D00B5
:1017100013070D0006070D00F9060C00ED060D007D
:10172000E0060C00D4060C00C8060C00BC060C0039
:10173000B0060C00A4060B0099060C008D060B00E9
:1017400082060B0077060B006C060B0061060A0090
:1017500057060B004C060A0042060A0038060A002B
:101760002E060A0024060A001A060A0010060900BE
:1017700007060A00FD050900F4050900EB0509004C
:10178000E2050900D9050900D0050900C7050900CF
:10179000BE050900B5050800AD050800A50509004E
:1017A0009C050800940508008C05080084050800C5
:1017B0007C050800740508006C0507006505080035
:1017C0005D050700560508004E05070047050700A0
:1017D0004005080038050700310507002A05070005
:1017E000230507001C050600160507000F05070066
:1017F0000805060002050700FB040600F5040700C3
:10180000EE040600E8040600E2040700DB0406001C
:10181000D5040600CF040600C9040600C304060070
:10182000BD040600B7040600B1040500AC040600C0
:10183000A6040600A00405009B040600950405000C
:10184000900406008A040500850405008004060053
:101850007A04050075040500700405006B0405009A
:1018600066040500610405005C04050057040500DA
:10187000520405004D04050048040500430405001A
:101880003E0404003A040500350405003004040059
:101890002C04050027040400230405001E04040092
:1018A0001A04040016040500110404000D040400C9
:1018B000090405000404040000040400FC030400FF
:1018C000F8030400F4030400F0030400EC03040034
:1018D000E8030400E4030400E0030400DC03040064
:1018E000D8030400D4030400D0030400CC03040094
:1018F000C8030300C503030024F404D9201BC40C4F
:101900005C0E9804C4095F0265077101F405F900D3
:10191000FB04B30048048700C10369005803550065
:1019200003034500BE023A008402310053022A003C
:101930002902250004022000E4011C00C80119004E
:10194000AF01170098011400840113007101100009
:101950006101100051010E0043010D0036010B0022
:101960002B010B0020010B00150109000C010900DF
:1019700003010800FB000800F3000800EB0007006B
:10198000E4000600DE000600D8000600D2000600D3
:10199000CC000500C7000500C2000500BD00040022
:1019A000B9000400B5000400B1000400AD0004005B
:1019B000A9000400A5000300A20003009F0004008A
:1019C0009B000300980003009500020093000300B1
:1019D000900003008D0002008B00030088000200CD
:1019E0008600020084000300810002007F000200E4
:1019F0007D0002007B0002007900020077000100F8
:101A00007600020074000200720001007100020002
:101A10006F0002006D0001006C0002006A0001000E
:101A20006900020067000100660001006500010016
:101A3000640002006200010061000100600001001A
:101A40005F0002005D0001005C0001005B0001001E
:101A50005A00010059000100580001005700010020
:101A60005600010055000100540001005300000021
:101A7000530001005200010051000100500001001C
:101A80004F0001004E0000004E0001004D0001001B
:101A90004C0001004B0000004B0001004A00010017
:101AA0004900010048000000480001004700010013
:101AB000460000004600010045000000450001000E
:101AC0004400010043000000430001004200000008
:101AD00042000100410000004100010040000100FF
:101AE0003F0000003F0001003E0000003E000100FA
:101AF0003D0000003D0001003C0000003C000000F3
:101B00003C0001003B0000003B0001003A000000E7
:101B10003A000100390000003900010038000000DF
:101B200038000000380001003700000037000100D5
:101B300036000000360000003600010035000000CD
:101B400035000000350001003400000034000000C2
:101B500034000100330000003300000033000100B6
:101B600032000000320000003200010031000000AD
:101B700031000000310001003000000030000000A2
:101B8000300001002F0000002F0000002F00000097
:101B90002F0001002E0000002E0000002E0001008A
:101BA0002D0000002D0000002D0000002D00010080
:101BB0002C0000002C0000002C0000002C00010074
:101BC0002B0000002B0000002B0000002B00010068
:101BD0002A0000002A0000002A0000002A0001005C
:101BE0002900000029000000290000002900000051
:101BF0002900010028000000280000002800000043
:101C00002800000028000100270000002700000035
:101C10002700000027000000270001002600000028
:101C2000260000002600000026000000260001001B
:101C30002500000025000000250000002500000010
:101C40002500000025000100240000002400000001
:101C500024000000240000002400010023000000F4
:101C600023000000230000002300000023000000E8
:101C700023000000230001002200000022000000D9
:101C800022000000220000002200000022000100CB
:101C900021000000210000002100000021000000C0
:101CA00021000000210000002100010020000000B0
:101CB00020000000200000002000000020000000A4
:101CC0002000000020000000200001001F00000094
:101CD0001F0000001F0000001F0000001F00000088
:101CE0001F0000001F0001001E0000001E00000079
:101CF0001E0000001E0000004D38342058205920DE
:101D00005A2045006265640A002C2073797374655B
:101D10006D2073746F70706564212048656174650F
:101D2000725F49443A200048656174696E672066B5
:101D300061696C65640048656174696E67206661FD
:101D4000696C65640048656174696E6720666169E5
:101D50006C65640048656174696E67206661696CD2
:101D60006564005072656865617420504C4120457F
:101D70006E64005072656865617420504C41204269
:101D80006564005072656865617420504C41005074
:101D9000726570617265005072656865617420419A
:101DA000425320456E64005072656865617420413D
:101DB0004253204265640050726568656174204139
:101DC0004253005072657061726500473238004DB1
:101DD000343238005072656865617420504C41009F
:101DE000436F6F6C646F776E004368616E67652048
:101DF00066696C616D656E740044697361626C65DF
:101E0000207374657070657273004D3834005365CB
:101E10007420686F6D65206F66667365747300501B
:101E200072656865617420414253004175746F208A
:101E3000686F6D65004D6F76652061786973004D40
:101E400061696E004D6F76652058004D6F76652094
:101E500059004D6F7665205A004578747275646537
:101E600072004D6F766520302E316D6D004D6F76AE
:101E70006520316D6D004D6F76652031306D6D00E0
:101E80004D6F76652061786973004578747275646A
:101E90006572004D6F7665205A004D6F766520594A
:101EA000004D6F76652058004578747275646572D0
:101EB000004D6F7665205A004D6F76652059004DB4
:101EC0006F76652058005072657061726500F4018C
:101ED0000000F401000064000000E80300000000BE
:101EE000FA430000FA430000A0400000C84100008F
:101EF000A0420000A0420000C8430000BA422044B3
:101F00000020490020204D333031205000504944FA
:101F10002073657474696E67733A0A002046002066
:101F2000420020480020204D3134352053004D61BF
:101F300074657269616C2068656174757020706188
:101F400072616D65746572733A0A00205A002059F7
:101F50000020204D323036205800486F6D65206FCC
:101F600066667365743A0A00204500205A002059BD
:101F70000020580020420020540020204D323035EF
:101F8000205300416476616E6365643A20533C6D72
:101F9000696E5F66656564726174653E20543C6D70
:101FA000696E5F74726176656C5F666565647261A7
:101FB00074653E20423C6D696E5F7365676D656E4A
:101FC000745F74696D655F6D733E20583C6D617818
:101FD0005F78795F6A65726B3E205A3C6D61785F0D
:101FE0007A5F6A65726B3E20453C6D61785F655F24
:101FF0006A65726B3E0A0020540020520020204D7A
:10200000323034205000416363656C6572617469DD
:102010006F6E2028756E6974732F7332293A2050C1
:102020003C7072696E745F616363656C3E20523C04
:10203000726574726163745F616363656C3E2054A2
:102040003C74726176656C5F616363656C3E0A0027
:10205000204500205A0020590020204D32303120E8
:1020600058004D6178696D756D20416363656C65DD
:10207000726174696F6E2028756E6974732F733284
:10208000293A0A00204500205A0020590020204DFE
:102090003230332058004D6178696D756D2066656A
:1020A000656472617465732028756E6974732F732B
:1020B000293A0A00204500205A0020590020204DCE
:1020C0003932205800537465707320706572207522
:1020D0006E69743A0A0020204D3230302044300AB4
:1020E0000020204D3230302044002044697361626A
:1020F0006C65640A0046696C616D656E7420736579
:102100007474696E67733A0020204D31343920436E
:10211000203B20556E69747320696E2043656C7393
:102120006975730A002020473231202020203B208F
:10213000556E69747320696E206D6D0A007A5F6D4B
:10214000696E3A2000795F6D696E3A2000785F6DA4
:10215000696E3A20005265706F7274696E6720650F
:102160006E6473746F70207374617475730A004CBD
:102170006F61642073657474696E677300496E697A
:102180007469616C697A6520454550524F4D005322
:10219000746F72652073657474696E677300466945
:1021A0006C616D656E74004D6F74696F6E0054657F
:1021B0006D7065726174757265004D61696E005075
:1021C0007265686561742041425320636F6E6600DA
:1021D0005072656865617420504C4120636F6E6673
:1021E0000046616E2073706565640046616E207301
:1021F000706565640046616E2073706565640042B9
:1022000065640042656400426564004E6F7A7A6CD2
:1022100065004E6F7A7A6C65004E6F7A7A6C650055
:10222000436F6E74726F6C0053746F7265207365C8
:102230007474696E677300426564004265640042AD
:102240006564004E6F7A7A6C65004E6F7A7A6C65C1
:10225000004E6F7A7A6C650046616E20737065651A
:10226000640046616E2073706565640046616E208F
:1022700073706565640054656D7065726174757224
:1022800065005654726176206D696E005654726115
:1022900076206D696E005654726176206D696E000D
:1022A000566D696E00566D696E00566D696E00560A
:1022B0006D6178204500566D6178204500566D614E
:1022C00078204500566D6178205A00566D6178205F
:1022D0005A00566D6178205A00566D617820590079
:1022E000566D6178205900566D6178205900566D01
:1022F0006178205800566D6178205800566D6178DD
:102300002058004D6F74696F6E00416D61782045F3
:1023100000416D6178204500416D6178205A00418F
:102320006D6178205A00416D6178205900416D61DE
:1023300078205900416D6178205800416D61782006
:102340005800412D74726176656C00412D74726184
:1023500076656C00412D7265747261637400412D65
:102360007265747261637400416363656C004163FC
:1023700063656C004D6F74696F6E00202F00204202
:10238000403A0020403A0048656174696E672064F5
:102390006F6E652E0020573A00457874727564653B
:1023A0007220257300456E6465722D33207265615D
:1023B00064792E0042656420646F6E652E0020579C
:1023C0003A004265642048656174696E672E00209A
:1023D0005A3A0020593A0020436F756E7420583ADB
:1023E0000020453A00205A3A0020593A00583A0055
:1023F00023646566696E65202044454641554C540A
:102400005F4B64200023646566696E652020444547
:102410004641554C545F4B69200023646566696EE4
:1024200065202044454641554C545F4B7020005078
:102430004944204175746F74756E652066696E69D4
:1024400073686564212050757420746865206C6120
:102450007374204B702C204B6920616E64204B6498
:1024600020636F6E7374616E74732066726F6D207B
:1024700062656C6F7720696E746F20436F6E66695A
:102480006775726174696F6E2E680A005049442046
:102490004175746F74756E65206661696C65642141
:1024A0002074696D656F75740A0050494420417548
:1024B000746F74756E65206661696C656421205463
:1024C000656D706572617475726520746F6F2068D8
:1024D0006967680A00204B643A2000204B693A2063
:1024E00000204B703A20000A20436C6173736963CB
:1024F00020504944200A002054753A2000204B7592
:102500003A2000206D61783A2000206D696E3A20F3
:102510000020643A200020626961733A2000566509
:102520002D6A65726B0056652D6A65726B00566583
:102530002D6A65726B00567A2D6A65726B00567A49
:102540002D6A65726B0056792D6A65726B0056793B
:102550002D6A65726B0056792D6A65726B0056782C
:102560002D6A65726B0056782D6A65726B0056781D
:102570002D6A65726B004D6F74696F6E00457374E0
:102580006570732F6D6D004573746570732F6D6D7D
:10259000005A73746570732F6D6D005A7374657093
:1025A000732F6D6D005973746570732F6D6D0059C5
:1025B00073746570732F6D6D005873746570732F2D
:1025C0006D6D005873746570732F6D6D004D6F7471
:1025D000696F6E0053746570732F6D6D004A65727C
:1025E0006B00416363656C65726174696F6E005660
:1025F000656C6F6369747900436F6E74726F6C0001
:1026000046696C2E204469612E0046696C2E204478
:1026100069612E004F6666004F6E20004520696E8E
:10262000206D6D3300436F6E74726F6C0043616E8A
:102630006E6F7420656E7465722073756264697262
:102640003A2000022E2E0001526566726573680002
:102650004D61696E00426175643A20313135323026
:1026600030004D656C7A692028437265616C69742D
:102670007929004578747275646572733A20310067
:102680007777772E637265616C69747933642E6332
:102690006E00456E6465722D3300312E312E36008A
:1026A000437265616C6974792033440041626F75CF
:1026B00074205072696E7465720020204E6F7A7AB1
:1026C0006C653A200020004261636B004D696E69C1
:1026D0006D756D2054656D70206973203137302E13
:1026E0000048656174696E67206661696C656400A5
:1026F00045787472756465206D6F726500526573FC
:10270000756D65207072696E7400524553554D4564
:10271000204F5054494F4E533A0020204E6F7A7A42
:102720006C653A20006368616E6765006F662074AF
:1027300068652066696C616D656E740057616974C7
:1027400020666F72207374617274005052494E5447
:10275000205041555345440020204E6F7A7A6C65D5
:102760003A2000200066696C616D656E7420756E9C
:102770006C6F6164005761697420666F720050521B
:10278000494E54205041555345440020204E6F7A05
:102790007A6C653A20002000506C65617365207783
:1027A0006169742E2E2E0048656174696E67206E13
:1027B0006F7A7A6C65005052494E542050415553FF
:1027C00045440020204E6F7A7A6C653A2000200044
:1027D00068656174206E6F7A7A6C652E0050726540
:1027E000737320627574746F6E20746F0050524959
:1027F0004E54205041555345440020204E6F7A7A64
:102800006C653A2000746F20636F6E74696E756535
:102810002E2E2E00616E64207072657373206275B7
:1028200074746F6E00496E736572742066696C61B2
:102830006D656E74005052494E54205041555345B9
:10284000440020204E6F7A7A6C653A2000200066A2
:10285000696C616D656E74206C6F616400576169AD
:102860007420666F72005052494E542050415553A7
:1028700045440020204E6F7A7A6C653A2000200093
:1028800066696C616D656E742065787472756465D7
:10289000005761697420666F72005052494E54208F
:1028A00050415553454400746F20726573756D65D2
:1028B000005761697420666F72207072696E7400CF
:1028C0005052494E54205041555345440070012CFC
:1028D0000190012701B0012201C0011D01F0011882
:1028E000011002130130020E01600209019002047E
:1028F00001C002FF000003FA004003F5008003F06E
:1029000000D003EB002004E6007004E100E004DCEA
:10291000004005D700C005D2004006CD00D006C853
:10292000008007C3003008BE00F008B900C009B439
:1029300000B00AAF00B00BAA00D00CA500000EA09A
:1029400000500F9B00C01096005012910000148C94
:1029500000C0158700B0178200B0197D00D01B7829
:1029600000001E730040206E0090226900F0246475
:102970000040275F0090295A00E02B5500102E5090
:102980000020304B0010324600E033410090353CCF
:10299000001037370070383200A0392D00B03A28C7
:1029A00000A03B2300603C1E00103D1900903D1428
:1029B00000103E0F00703E0A00C03E0500003F00C0
:1029C00000403FFBFF803FF6FFC03FF1FF5448450A
:1029D000524D414C2052554E415741590054686563
:1029E000726D616C2052756E61776179004572720B
:1029F0003A204D494E54454D5020424544004572C1
:102A0000723A204D494E54454D50004D494E544563
:102A10004D50207472696767657265640045727213
:102A20003A204D415854454D50204245440045728E
:102A3000723A204D415854454D50004D415854452F
:102A40004D5020747269676765726564007C3C3E16
:102A50005E2B3D3F2F5B5D3B2C2A225C000006096C
:102A600000FE070192032120FFFF08FF07FF00007F
:102A700000060000010707060200808080808000B9
:102A800080030202060105A0A0050707060000500A
:102A900050F850F850500507070600002078A07045
:102AA00028F020050707060000C0C810204098182D
:102AB0000507070600006090A040A8906802030385
:102AC000060104C040800307070601002040808003
:102AD000804020030707060100804020202040801E
:102AE00005050506000120A870A8200505050600BB
:102AF000012020F820200203030602FFC0408005C9
:102B00000101060003F8020202060200C0C005052A
:102B10000506000108102040800507070600007028
:102B200088888888887003070706010040C04040F5
:102B30004040E0050707060000708808708080F8B4
:102B4000050707060000F81020100808F005070721
:102B500006000010305090F810100507070600001E
:102B6000F880F0080888700507070600007080806C
:102B7000F0888870050707060000F808102020205C
:102B80002005070706000070888870888870050790
:102B9000070600007088887808087002050506029C
:102BA00000C0C000C0C00206060602FFC0C000C0D0
:102BB00040800407070600001020408040201005D8
:102BC0000303060002F800F804070706010080402E
:102BD000201020408005070706000070880810209C
:102BE000002005070706000070880868A8A870057F
:102BF0000707060000708888F88888880507070698
:102C00000000F08888F08888F0050707060000704B
:102C1000888080808870050707060000F088888813
:102C20008888F0050707060000F88080F08080F8AB
:102C3000050707060000F88080F080808005070700
:102C4000060000708880B8888870050707060000B5
:102C5000888888F8888888010707060200808080B5
:102C60008080808005070706000038101010109043
:102C7000600507070600008890A0C0A0908805079F
:102C800007060000808080808080F8050707060026
:102C90000088D8A8888888880507070600008888E3
:102CA000C8A8988888050707060000708888888863
:102CB0008870050707060000F08888F0808080058E
:102CC000070706000070888888A89068050707062F
:102CD0000000F08888F0A0908805070706000078BB
:102CE0008080700808F0050707060000F820202003
:102CF00020202005070706000088888888888870BB
:102D0000050707060000888888888850200507077F
:102D10000600008888888888A850050707060000F4
:102D20008888502050888805070706000088888812
:102D300050202020050707060000F80810204080DA
:102D4000F8030707060100E08080808080E0050529
:102D5000050600018040201008030707060100E077
:102D60002020202020E005030306000420508805D1
:102D70000101060000F80202020602058040050576
:102D800005060000700878887805070706000080AF
:102D900080B0C88888F0050505060000708080882E
:102DA00070050707060000080868988888780505F8
:102DB000050600007088F8807005070706000030DF
:102DC00048E0404040400506060600FF70888878CD
:102DD00008700507070600008080B0C88888880151
:102DE00007070602008000808080808003080806B4
:102DF00001FF200020202020A0400407070600003B
:102E0000808090A0C0A090030707060100C040404A
:102E1000404040E0050505060000D0A8A8A8A80588
:102E20000505060000B0C88888880505050600006D
:102E300070888888700506060600FFF08888F08094
:102E4000800506060600FF788888780808050505CD
:102E5000060000B0C880808005050506000070806F
:102E60007008F00407070600004040E04040403092
:102E70000505050600008888889868050505060090
:102E80000088888850200505050600008888A8A8C5
:102E900050050505060000885020508805060606E6
:102EA00000FF888888780870050505060000F8107E
:102EB0002040F803070706010020404080404020E2
:102EC000010707060200808080808080800307075A
:102ED00006010080404020404080050202060002BA
:102EE00068900000000600000000000600000000DE
:102EF00000060000000000060000000000060000C0
:102F000000000006000000000006000000000006AF
:102F100000000000000600000000000600000000A5
:102F2000000600000000000600000000000600008F
:102F3000000000060000000000060000000000067F
:102F40000000000000060000000000060000000075
:102F5000000600000000000600000000000600005F
:102F6000000000060000000000060000000000064F
:102F70000000000000060000000000060000000045
:102F8000000600000000000600000000000600002F
:102F9000000000060000000000060000000000061F
:102FA000000000000006000000000006000001070D
:102FB00007060200800080808080800507070600E9
:102FC000002070A8A0A87020050707060000304068
:102FD00040E04050A8050505060000887050708844
:102FE000050707060000885020F820F82001070791
:102FF00006020080808000808080050808060000AE
:103000003048205050209060030101060107A005C0
:103010000707060000F888B8B8B888F8050707065B
:103020000001700878887800F80505050600012879
:1030300050A05028050303060001F8080802020208
:103040000602064080050707060000F888A8889851
:10305000A8F8050101060006F80404040600036050
:103060009090600507070600002020F8202000F857
:1030700004050506000360902040F00305050600E6
:1030800003E020E020E0020202060206408005087C
:10309000080600FF8888888898E88080050707066A
:1030A000000078989878181818020202060202C0E8
:1030B000C00202020602FF4080030505060003402D
:1030C000C04040E00507070600017088888870004E
:1030D000F8050505060001A0502850A005070706C1
:1030E00000008890A858B80808050707060000885F
:1030F00090B848982038050808060000C040C0482D
:10310000D8380808050707060000200020408088FE
:10311000700508080600004020007088F8888805BF
:1031200008080600001020007088F8888805080844
:103130000600002050007088F888880508080600FE
:10314000006890007088F88888050808060000501C
:1031500000708888F888880508080600002050203C
:103160007088F888880507070600003860A0B8E076
:10317000A0B80508080600FF70888080887020606D
:10318000050808060000402000F880F080F80508D7
:1031900008060000081000F880F080F8050808060E
:1031A0000000205000F880F080F8050707060000B6
:1031B0005000F880F080F803080806010080400005
:1031C000E0404040E0030808060100204000E040E5
:1031D0004040E003080806010040A000E0404040F5
:1031E000E0030707060100A000E0404040E00507BB
:1031F00007060000704848E84848700508080600BF
:103200000068900088C8A898880508080600004053
:1032100020708888888870050808060000102070D3
:10322000888888887005080806000020500070888B
:1032300088887005080806000068900070888888F3
:10324000700508080600005000708888888870059E
:10325000050506000188502050880508080600FF73
:103260001070A8A8A8A87040050808060000402013
:1032700088888888887005080806000010208888DB
:103280008888887005080806000020500088888813
:1032900088700508080600005000888888888870B3
:1032A000050808060000102088502020202005096D
:1032B000090600FFC040704848704040E00408081C
:1032C0000601FF609090A09090E08005080806003D
:1032D0000040200070087888780508080600001073
:1032E0002000700878887805080806000020500043
:1032F0007008788878050808060000689000700853
:1033000078887805070706000050007008788878EC
:103310000508080600002050207008788878050607
:1033200006060000D02878A0A8500506060600FF73
:10333000708088702060050808060000402000703A
:1033400088F880700508080600001020007088F8D2
:1033500080700508080600002050007088F8807012
:1033600005070706000050007088F8807003080801
:1033700006010080400040C04040E003080806010C
:103380000020400040C04040E00308080601004023
:10339000A00040C04040E0030707060100A0004035
:1033A000C04040E0050707060000A040A010788854
:1033B00070050808060000689000B0C88888880575
:1033C00008080600004020007088888870050808FA
:1033D0000600001020007088888870050808060024
:1033E0000020500070888888700508080600006872
:1033F00090007088888870050707060000500070EC
:10340000888888700505050600012000F800200561
:1034100007070600FF1070A8A8A870400508080656
:103420000000402000888888986805080806000089
:103430001020008888889868050808060000205039
:10344000008888889868050707060000500088886B
:103450008898680509090600FF102000888888F808
:1034600008700407070601FFC04060506040E00597
:1034700008080600FF50008888887808700000213E
:1034800000240027002A0000002200250028002B2D
:103490000000002000230026002900020202020290
:1034A00002020204040404040404040303030303E7
:1034B00003030301010101010101010102040810DC
:1034C00020408001020408102040800102040810FE
:1034D000204080804020100804020100000001020A
:1034E00000090A00000000040308070000000000B3
:1034F0000000000000000000000000656E717565AE
:103500007565696E672022006563686F3A002E0A50
:10351000006F70656E206661696C65642C20466979
:103520006C653A200057726974696E6720746F2069
:1035300066696C653A2000526573656E643A2000D6
:103540006F6B00627573793A2070617573656420E2
:10355000666F7220696E7075740A00627573793ACD
:103560002070617573656420666F72207573657273
:103570000A00627573793A2070726F6365737369BC
:103580006E670A004B494C4C45442E20004B494C79
:103590004C2063617573656420627920746F6F20BD
:1035A0006D75636820696E616374697665207469FE
:1035B0006D65202D2063757272656E7420636F6D6A
:1035C0006D616E643A2000506C65617365207265B0
:1035D000736574005052494E5445522048414C5432
:1035E0004544005072696E7465722068616C746540
:1035F000642E206B696C6C28292063616C6C656497
:10360000210A00000000000000000000000000008F
:10361000004842000048420000804000000000577F
:1036200061726E696E673A20486F6D696E672042FD
:10363000756D702044697669736F72203C20310A81
:10364000000202040000A0400000A0400000004072
:1036500000006B4300006B4300007A43FFFFFF2E26
:103660000A0046696C652862696E292064656C658C
:103670007465640044656C6574696F6E2862696E78
:1036800029206661696C6564004572726F722077EB
:10369000726974696E6720746F20454550524F4DB2
:1036A000210A0000060900FE0000000000010900D8
:1036B00008FE000005080806000040F0C888889849
:1036C0007810050808060000C0F88888888888F8FF
:1036D0000505050600012030F83020050808060021
:1036E000002070F820202020E00509090600FF20B6
:1036F00070A8A8B8888870200509090600FFE08036
:10370000C0B0A8283028280509090600FFF8A888B5
:1037100088888888A8F8050A0A0600FE20505050BC
:103720005088A8A8887003030306000340A0400047
:1037300048E105E211241FBECFEFD0E4DEBFCDBFCC
:1037400013E0A0E0B1E0EEE1F8EE01E00BBF02C053
:1037500007900D92AE37B107D9F729E1AEE7B3E094
:1037600001C01D92A23AB207E1F71BE1C9E9DBE112
:1037700004C02197FE010E9472F3C839D107C9F72E
:103780000E946CD60C9402F40C9400002F923F928D
:103790004F925F926F927F928F929F92AF92BF9261
:1037A000CF92DF92EF92FF920F931F93CF93DF930D
:1037B000CDB7DEB7C056D1090FB6F894DEBF0FBE45
:1037C000CDBF0091CD0820E6029F80011124035B4C
:1037D000184F8091C10980FF1AC0E8E0F5E3849199
:1037E0007F013FEFE31AF30A811102C0780104C0A0
:1037F0000E949238F701F3CFD7018D917D01882384
:1038000019F00E949238F8CF8AE00E94923881E045
:1038100090E09093BE158093BD151092A90310926D
:10382000A8038FE38093AC031092AB031092AA031A
:1038300084E0E8E9F3E0DF011D928A95E9F7F801F9
:1038400080810F5F1F4F8032D1F38E34C9F48181A4
:1038500090ED980F9A3020F08D3211F08B3281F478
:10386000DF0112969D012F5F3F4F8C9180538A306C
:1038700010F4D901F7CFFD01119680818032D9F380
:10388000F093C615E093C5157F01BFEFEB1AFB0A55
:1038900010816AE270E0C7010E94CAF3009731F01C
:1038A000FC01319780818032E1F311821D3431F1C6
:1038B000143521F1173411F1E8E0F5E384918F011B
:1038C0000F5F1F4F882321F00E949238F801F6CF36
:1038D0006091C5157091C6158FEA97E00E944D4121
:1038E00082E20E9492388AE00E9492381092BE15BD
:1038F0001092BD150E94B0CA0C944133C701FC015F
:10390000208101962032D9F320532A30A8F6109353
:10391000AC0380E090E06AE03196DF0111972C91D2
:10392000022E000C330B20533109689FA001699FC0
:10393000500D1124C901840F951F208120532A3076
:1039400058F39093AB038093AA03DF0131962C9137
:103950002032D9F31D34A9F48E319105D1F03CF415
:1039600087319105B1F08C31910559F412C085373A
:1039700091053CF08737910564F0803AE3E09E07BB
:1039800041F00091C51560E070E0EE24E394F12C65
:1039900043C0B093A903A093A8037FC0213209F4C8
:1039A00045C03FEBB32EB20E49E1A42EAB1408F490
:1039B0005FC0AF01FA0130814F5F5F4F3032D1F30A
:1039C00040ED430F4A3008F047C0AF018B2C912CDB
:1039D000640123E0D594C7942A95E1F7960128560F
:1039E0003C4F69012B2D2770D70102C0AA0FBB1FC6
:1039F0002A95E2F79D01D6013C91232B2C9341158A
:103A00005105A1F1401BD401A258BC4F4C93208119
:103A100021542A3190F5DF01FD0131962C912111BD
:103A2000BDCF7093A9036093A80337C01D3409F07C
:103A3000B8CF8032910509F0B4CFF093A903E09399
:103A4000A80363E270E0CF010E94CAF3009709F473
:103A50007FC7DC011C9221C043ED430F423008F4C4
:103A6000B4CF3B3211F00C94D232AFCF40E0CBCF89
:103A70006115710561F6BD01CACFDF01AD014F5F70
:103A80005F4F2C9120532A3010F4DA01F7CFFD015B
:103A9000119620812032D9F3BECF8091AC038D34B2
:103AA00009F456C7843511F40C948F32873409F029
:103AB00003CF2090AA033090AB03B4E02B1631045F
:103AC00009F4E2C554F437FC11CF80912101F2E0F2
:103AD0002F1631040CF0F4C017C02AE52216310469
:103AE00009F4CDC634F44CE12416310409F411C6AE
:103AF000FDCE5BE52516310409F4C4C68CE5281615
:103B0000310409F4C3C6F2CE882309F4EFCE0E9433
:103B10000F3880912E01882321F083EE95E10E94D9
:103B200054C60E9487388091C10983FD79C0C09036
:103B3000EF15D090F015E090F115F090F21520916E
:103B40008718309188184091891850918A18C701B8
:103B5000B6010E9483E9882309F462C00E9468418B
:103B6000882309F1C0928718D0928818E0928918AA
:103B7000F0928A18E8E0F5E384918F010F5F1F4F00
:103B8000811103C0E2EEF2E004C00E949238F80115
:103B9000F3CF84918F010F5F1F4F882321F00E9484
:103BA0009238F801F6CFC090EF15D090F015E09064
:103BB000F115F090F21520918718309188184091F6
:103BC000891850918A18C701B6010E943CF020E084
:103BD00030E048E453E40E949DF218160CF5C092C0
:103BE0008718D0928818E0928918F0928A18E8E035
:103BF000F5E384918F010F5F1F4F811103C0E3EC48
:103C0000F2E004C00E949238F801F3CF84918F0152
:103C10000F5F1F4F882321F00E949238F801F6CFE2
:103C20002091E3153091E4154091E5155091E6158A
:103C300060917B1870917C1880917D1890917E180E
:103C40000E9483E981111DC02091E7153091E8158C
:103C50004091E9155091EA1560917F187091801894
:103C600080918118909182180E9483E9811109C086
:103C700060910601709107018091080190910901FE
:103C80001AC060911A0170911B01072E000C880B5D
:103C9000990B0E948AE92091060130910701409119
:103CA0000801509109010E94E9E92AE037ED43E259
:103CB0005CE30E94E9E90E94D2350E94C83516CE25
:103CC000882309F413CE0E940F3882E50E9402383F
:103CD000882309F43CC10E94A0374B015C0120E01D
:103CE00030E0A9010E9483E9882309F45CC1209196
:103CF0007B1830917C1840917D1850917E182DA72B
:103D00003EA74FA758AB80917F1890918018A09143
:103D10008118B091821889AB9AABABABBCAB209148
:103D2000E3153091E4154091E5155091E61529AF62
:103D30003AAF4BAF5CAF8091E7159091E815A09139
:103D4000E915B091EA158DAB9EABAFABB8AF6DA5E1
:103D50007EA58FA598A90E9483E981110DC02DA988
:103D60003EA94FA958AD69A97AA98BA99CA90E941F
:103D700083E9882309F417C111E092E02916310480
:103D800009F010E020E030E0A901C501B4010E9473
:103D900083E9881F8827881F181759F020E030E032
:103DA00040E85FEB29962CAF3DAF4EAF5FAF299750
:103DB0000AC080E090E0A0E8BFE329968CAF9DAFF9
:103DC000AEAFBFAF29972DA53EA54FA558A969ADA8
:103DD0007AAD8BAD9CAD0E943CF025966CAF7DAF6B
:103DE0008EAF9FAF259729A93AA94BA95CA96DA9C8
:103DF0007EA98FA998AD0E943CF06B017C012596AD
:103E00002CAD3DAD4EAD5FAD2597CA01B9010E9405
:103E1000E9E92B013C01A7019601C701B6010E9407
:103E2000E9E99B01AC01C301B2010E943DF00E948F
:103E3000EBF221966CAF7DAF8EAF9FAF219720E064
:103E400030E040E05FE30E94E9E92B013C01A5017D
:103E50009401C501B4010E94E9E94B015C01A30191
:103E60009201C301B2010E94E9E99B01AC01C501C5
:103E7000B4010E943CF00E94EBF229962CAD3DADBE
:103E80004EAD5FAD29970E94E9E94B015C01C70186
:103E9000B601905821962CAD3DAD4EAD5FAD21974A
:103EA0000E9437F1A50194010E94E9E96B017C01B0
:103EB00029AD3AAD4BAD5CAD6DA57EA58FA598A99A
:103EC0000E943DF020E030E040E05FE30E94E9E93D
:103ED0009B01AC01C701B6010E943DF02DA53EA596
:103EE0004FA558A90E943CF06B017C012DA93EA969
:103EF0004FA958AD69A97AA98BA99CA90E943DF048
:103F000020E030E040E05FE30E94E9E92B013C0162
:103F100021962CAD3DAD4EAD5FAD219725966CAD94
:103F20007DAD8EAD9FAD25970E9437F1A50194011F
:103F30000E94E9E99B01AC01C301B2010E943DF07E
:103F400029A93AA94BA95CA90E943CF014C089E4B4
:103F50000E940238882329F00E94A0376B017C015F
:103F600003C0C12CD12C76018AE40E940238882338
:103F7000E9F00E94A03769AF7AAF8BAF9CAF20E029
:103F800030E0A901C701B6010E9483E981111BC07D
:103F900020E030E0A90169AD7AAD8BAD9CAD0E9407
:103FA00083E9811110C0EFECF4E15BC320E030E065
:103FB000A901C701B6010E9483E98823A1F319AEC4
:103FC0001AAE1BAE1CAEA701960150582DA73EA7F6
:103FD0004FA758AB89AD9AADABADBCADB05889AB6E
:103FE0009AABABABBCABCA01B9010E94E9E94B018A
:103FF0005C0129A93AA94BA95CA9CA01B9010E948F
:10400000E9E99B01AC01C501B4010E943DF00E94A9
:10401000EBF265966CAF7DAF8EAF9FAF6597209149
:104020007B1830917C1840917D1850917E182DABF3
:104030003EAB4FAB58AFA70196016DA97EA98FA9E2
:1040400098AD0E943DF029966CAF7DAF8EAF9FAFCB
:10405000299780917F1890918018A0918118B09134
:10406000821821968CAF9DAFAEAFBFAF21979C0158
:10407000AD0169AD7AAD8BAD9CAD0E943DF0699606
:104080006CAF7DAF8EAF9FAF69972091E3153091F4
:10409000E4154091E5155091E6152D962CAF3DAFF6
:1040A0004EAF5FAF2D9729962CAD3DAD4EAD5FADB8
:1040B00029972D966CAD7DAD8EAD9FAD2D970E944D
:1040C0003CF06B017C018091E7159091E815A0917F
:1040D000E915B091EA1561968CAF9DAFAEAFBFAF59
:1040E000619769962CAD3DAD4EAD5FAD6997BC0152
:1040F000CD010E943CF04B015C012091831830916E
:10410000841840918518509186186D962CAF3DAF5C
:104110004EAF5FAF6D976091EB157091EC1580918C
:10412000ED159091EE150E943CF025966CAF7DAF99
:104130008EAF9FAF2597A70196016DA57EA58FA590
:1041400098A90E94E9E92B013C01A501940169A904
:104150007AA98BA99CA90E94E9E99B01AC01C30142
:10416000B2010E943DF02B013C01A50194016DA517
:104170007EA58FA598A90E94E9E94B015C01A701E2
:10418000960169A97AA98BA99CA90E94E9E99B01DA
:10419000AC01C501B4010E943CF0A30192010E9450
:1041A000BCF06B017C0120E030E0A9010E9483E9B2
:1041B00087FF0AC02BED3FE049EC50E4C701B60190
:1041C0000E943DF06B017C0132E02316310451F472
:1041D0002BED3FE049EC50E4C701B6010E943CF0F2
:1041E0006B017C0120E030E0A901C701B6010E940B
:1041F00083E9811126C02D962CAD3DAD4EAD5FAD4E
:104200002D976DA97EA98FA998AD0E9483E9811190
:1042100018C061962CAD3DAD4EAD5FAD6197219656
:104220006CAD7DAD8EAD9FAD21970E9483E981116C
:1042300008C01BEDC12E1FE0D12E19ECE12E10E4B9
:10424000F12EA701960165966CAD7DAD8EAD9FAD4B
:1042500065970E94E9E99B01AC010E94E9E94B01E5
:104260005C0125962CAD3DAD4EAD5FAD2597CA01E5
:10427000B9010E94E9E99B01AC01C501B4010E94AA
:104280003DF00E94EBF24B015C012FE632E143E886
:104290005AE30E9483E987FDDEC1C501B4010E9493
:1042A000DFF10E94B0F17EAF6DAF672B21F421E00A
:1042B00030E03EAF2DAF4090871850908818609046
:1042C000891870908A18ADACBEACB50180E090E062
:1042D0000E9488E94B015C019B01AC01C701B6015A
:1042E0000E9437F16DAB7EAB8FAB98AFA501940107
:1042F00025966CAD7DAD8EAD9FAD25970E9437F1B3
:1043000065966CAF7DAF8EAF9FAF6597A3019201AD
:104310006091EF157091F0158091F1159091F21563
:104320000E943CF0A50194010E9437F1A1966CAF68
:104330007DAF8EAF9FAFA1972DA93EA94FA958ADD4
:10434000CA01B9010E94E9E920E030E040E05FE302
:104350000E94E9E99B01AC0160E070E080E89FE326
:104360000E943CF025966CAF7DAF8EAF9FAF259736
:104370006D962CAD3DAD4EAD5FAD6D9729873A87FB
:104380004B875C874D865E866F86788A60911A01BE
:1043900070911B01072E000C880B990B0E948AE973
:1043A00020910601309107014091080150910901C7
:1043B0000E94E9E92AE037ED43E25CE30E94E9E983
:1043C0002D966CAF7DAF8EAF9FAF2D970E944BAEF9
:1043D0009B01AC0128533F4F4F4F5F4F61962CAF6D
:1043E0003DAF4EAF5FAF61974DA45EA46FA478A8B8
:1043F00022242394312CB9E1DB2EADACBEACA21447
:10440000B30409F414C10E949B640E944BAEDC010A
:10441000CB0161962CAD3DAD4EAD5FAD6197821B7A
:10442000930BA40BB50BB7FD11C00E944BAE9B01C3
:10443000AC0128533F4F4F4F5F4F61962CAF3DAFBC
:104440004EAF5FAF619780E00E9444C8DA94DD20F0
:1044500009F441C029A93AA94BA95CA925966CADDC
:104460007DAD8EAD9FAD25970E94E9E94B015C01C2
:104470009201A3016DA97EA98FA998AD0E94E9E9D7
:10448000A50194010E943DF07B018C019201A301E2
:1044900025966CAD7DAD8EAD9FAD25970E94E9E967
:1044A0004B015C0129A93AA94BA95CA96DA97EA978
:1044B0008FA998AD0E94E9E99B01AC01C501B40147
:1044C0000E943CF02B013C01C701D80189AB9AAB9B
:1044D000ABABBCAB4DC0B10180E090E00E9488E97D
:1044E0002DA93EA94FA958AD0E94E9E94B015C01F5
:1044F0000E9432F16B017C01C501B4010E94DDF222
:104500004B015C01A70196016DA57EA58FA598A919
:104510000E94E9E92B013C01A501940169AD7AAD46
:104520008BAD9CAD0E94E9E9A30192010E943DF090
:104530002B013C01A50194016DA57EA58FA598A92D
:104540000E94E9E94B015C01A701960169AD7AADD2
:104550008BAD9CAD0E94E9E99B01AC01C501B401A2
:104560000E943CF069AB7AAB8BAB9CABF9E1DF2EE0
:104570009201A30129966CAD7DAD8EAD9FAD2997BB
:104580000E943DF069837A838B839C8329A93AA991
:104590004BA95CA969966CAD7DAD8EAD9FAD699759
:1045A0000E943DF06D837E838F83988765962CAD46
:1045B0003DAD4EAD5FAD659769857A858B859C85F0
:1045C0000E943DF069877A878B879C87A1962CADE6
:1045D0003DAD4EAD5FADA1976D857E858F85988988
:1045E0000E943DF06D877E878F87988B80912E018A
:1045F000882321F0CE0101960E9454C6C090730911
:104600002D96ECACFDAC0EAD1FAD2D979E01235F3A
:104610003F4FAE01475F5F4FBE016B5F7F4FCE01E3
:1046200001960E9402433FEF231A330AE6CEC09060
:1046300073092D96ECACFDAC0EAD1FAD2D972FEE92
:1046400035E14BEE55E167EE75E183EE95E10E94B1
:1046500002430E94C8350E94873848C90E94923898
:10466000F80184918F010F5F1F4F8111F7CFEDEF9C
:10467000F2E084918F010F5F1F4F882309F436C940
:104680000E949238F801F5CF80E50E940238882315
:1046900029F00E945C376B017C0103C0C12CD12C36
:1046A000760183E50E940238882361F00E94A037DA
:1046B00020E030E04AE754E40E94E9E90E94B0F1CA
:1046C0006B017C010E94876780913701811105C0D1
:1046D00060E083E193E00E9407B30E9487388091F5
:1046E000290790912A07A0912B07B0912C07C80E9B
:1046F000D91EEA1EFB1E0E944BAEDC01CB018C19B9
:104700009D09AE09BF09B7FFF1C880E00E9444C807
:10471000F2CF0E9487678091060190910701A091D6
:104720000801B09109018093A4039093A503A0937D
:10473000A603B093A70380911A0190911B01909357
:10474000A3038093A20384E690E090931B018093DF
:104750001A010E94873881E08093B30388E50E94A4
:10476000D337E82E89E50E94D337082F8AE50E94C7
:10477000D337F82EE11005C0011105C011E018274C
:1047800005C0011102C010E001C0182F0E94BE3503
:10479000111105C0E11003C0002309F444C020E05A
:1047A00030E040EA50E46091D3157091D4158091C7
:1047B000D5159091D6150E943DF06093EB1570933E
:1047C000EC158093ED159093EE15209183183091A0
:1047D000841840918518509186180E949DF21816F1
:1047E0007CF419821A821B821C829E012F5F3F4F2C
:1047F0004BEE55E16FE778E18BE798E10E94CC340E
:10480000111105C0E11003C0011107C00CC080E008
:1048100090E00E94E6C61123B9F381E090E00E9487
:10482000E6C6111102C0FF2021F082E090E00E9454
:10483000E6C60E94F436809115118093B3038091EF
:10484000A4039091A503A091A603B091A703809320
:10485000060190930701A0930801B093090180918C
:10486000A2039091A30390931B0180931A010E94CD
:10487000873883E080938F010E94868737C8109223
:10488000A10334C881E08093A10330C885E40E946D
:104890000238B82E811102C00E94876764E9862E13
:1048A00061E0962E7BE7C72E78E1D72EE7EDEE2E5E
:1048B000E5E1FE2E00E010E0A12C33243394D40176
:1048C0008D914D010E940238882359F1F6014080F4
:1048D0005180628073800E94A037D6016D937D93D2
:1048E0008D939C9313970330E1F0023011F43092D2
:1048F000B603A30192010E943CF09B01AC01F701B9
:1049000060817181828193810E943DF0D7016D9316
:104910007D938D939C931397C8010E94EB35AA2435
:10492000A3940F5F1F4FB4E0CB0ED11CE4E0EE0E5A
:10493000F11C0430110519F6AA2019F00E94F43672
:1049400003C0B1100E9425CC0E9486870C94761C6F
:104950008091AA039091AB038137910509F41EC69B
:104960000CF0D0C08B34910509F436C50CF05FC053
:104970008831910509F494C2B4F58231910509F4A6
:10498000E0C6BCF497FF02C00C94761C82309105FF
:104990000CF4A7C1419711F00C94761C60E08DE4F3
:1049A00093E00E9407B35E985E9815985E980C9409
:1049B000761C8531910509F45CC23CF4449711F0F2
:1049C0000C94761CE5E6F3E014C28631910509F4F7
:1049D00054C2479711F00C94761C8091A8039091D3
:1049E000A903FC0154C28C31910509F4C2C264F4DC
:1049F0008A31910509F461C20CF07EC210928C12CA
:104A00000E94D2CC0C94761C8F31910509F4EEC330
:104A10002CF44E9709F4B7C20C94761C80329105A1
:104A200009F49AC38A9709F497C40C94761C8836C3
:104A3000910509F4DDC40CF046C08235910509F4F6
:104A400077C644F58D34910509F4CEC40CF4C8C47E
:104A50008135910511F00C94761C0E9427A40E94C8
:104A600087670E94D1C710921116109210160E94EB
:104A7000A3CC1092B8031092B70368EE73E080E005
:104A800090E00E94ECB160E08EE694E00E9407B3F3
:104A90000C94761C8435910509F453C60CF44CC66D
:104AA0008535910509F480C68C35910511F00C947B
:104AB000761C24E9C22E21E0D22E3BE8E32E38E119
:104AC000F32E10E08CC68C36910509F463C53CF4D6
:104AD0008A36910509F4FBC50CF4ABC517C68E36B2
:104AE000910509F4D1C40CF4EAC58F36910509F497
:104AF000DEC48037910511F00C94761C8BE594E0B0
:104B00000E94DBC7833D910509F4E4C00CF06BC043
:104B10008139910511F40C944C2D5CF58637910583
:104B200009F472C7A4F48337910509F4D7C00CF4D3
:104B3000D6C68537910511F00C94761C60E0809103
:104B4000A8039091A9030E9425B30C94761C883782
:104B5000910511F40C943F2D0CF48DC78937910504
:104B600011F40C94462D8C38910509F444C50C942D
:104B7000761C893C910511F40C941B2E7CF48E3B21
:104B8000910509F4A0C5883C910511F40C94C72D3A
:104B90008B39910511F00C94761C68C58C3C9105FD
:104BA00011F40C94572E6CF48B3C910511F00C947D
:104BB000761C74E9E72E71E0F72E0CE211E10C94FB
:104BC000472E8D3C910511F40C94C32E8E3C91051B
:104BD00011F00C94761C64E9E62E61E0F62E00E0FC
:104BE00010E00C94302F8039F1E09F0711F40C9401
:104BF0005F3184F58C3231E0930711F40C943B3033
:104C00008CF48D3D910511F40C94F02F823E9105AA
:104C100011F40C940C308C3D910511F00C94761C21
:104C20000C94E12F8E3251E0950711F40C9404316D
:104C300014F40C9465308F32B1E09B0711F40C949E
:104C40005B318336914011F00C94761CEFECF4E16B
:104C50000C946732863FF1E09F0711F40C944D32BB
:104C6000FCF48C3A31E0930711F40C9463314CF46A
:104C70008A39914011F00C94761C0E942D870C9477
:104C8000761C843FA1E09A0711F40C944932853FC9
:104C9000914011F00C94761C0E94A9BD0C94761CD6
:104CA0008835E2E09E0711F40C9460323CF4873FB3
:104CB000914011F40C9451320C94761C803A33E0FC
:104CC000930709F486C2873E934011F40C947B321B
:104CD0000C94761CE8E0F5E30C94492FE6E5F5E04A
:104CE00007C6A090A803B090A90380E50E940238EF
:104CF000882359F00E945C376B017C0111E0672B1F
:104D0000682B692B31F410E004C010E0C12CD12CC9
:104D1000760183E50E9402388823F1F00E94A037D3
:104D200020E030E04AE754E40E94E9E90E94B0F153
:104D30006B017C01111112C0672B682B692B71F478
:104D4000A114B10459F0D5018C91882339F061E0A8
:104D5000C5010E9425B307C0112391F360E08AE3E7
:104D600093E00E9407B383E090E09093BE15809398
:104D7000BD1581E08093E5110E9487670E94873806
:104D8000C114D104E104F104E1F08091290790916C
:104D90002A07A0912B07B0912C07C80ED91EEA1E36
:104DA000FB1E0E944BAEDC01CB018C199D09AE09A4
:104DB000BF09B7FF1AC08091E51181110C94DC3254
:104DC00014C08091E511882321F080E00E9444C83E
:104DD000F8CF80918C1260E0882319F08BE293E089
:104DE00002C08CE193E00E9407B31092E5110C948D
:104DF000761C84918F010F5F1F4F882321F00E9442
:104E00009238F801F6CF10923115109230158DEBD3
:104E100092E10E941AA78BE1EDEBF2E1DE0115961B
:104E200001900D928A95E1F78091BB129091BC128E
:104E30009C838B838CE991E09A83898340E050E0E6
:104E4000BE016F5F7F4F8BE792E00E944F60CE0103
:104E500001960E94C9C7E6E5F3E084918F010F5FD8
:104E60001F4F882311F40C94761C0E949238F8018D
:104E7000F4CF0E94CF5E0C94761C10928C1210928C
:104E80008D120C94761C203209F410823196208108
:104E90002111F9CF40E061E00E945A620C94761C27
:104EA0000E94A3CC80918D12882319F081E0809319
:104EB0008C120E9463CC0C94761C80918D128823F6
:104EC00011F40C94761C83E50E940238882311F4B7
:104ED0000C94761C0E946C37AB01BC0140932715E3
:104EE000509328156093291570932A1587E594E14E
:104EF0000E9485D10C94761C80918D12811103C083
:104F0000E8E8F3E02AC0E6E7F3E084918F010F5F61
:104F10001F4F882321F00E949238F801F6CF60914C
:104F20002715709128158091291590912A154AE02E
:104F30000E9499388FE20E949238609123157091F7
:104F4000241580912515909126154AE00E949938E4
:104F50008AE00E9492380C94761C84918F010F5F36
:104F60001F4F882311F40C94761C0E949238F8018C
:104F7000F4CF40E060E08091A8039091A9030E94E3
:104F80005A620C94761C80918D12882311F40C9433
:104F9000761C87E594E10E9452D187E594E10E9456
:104FA000BCA510928B1210928A12E090A803F09088
:104FB000A90380918D12882311F40C94761C109211
:104FC0008C1280915A14882321F087E594E10E9485
:104FD000BCA5FE0131966F01CF010E94F2CE89EB94
:104FE00092E19093D9128093D812D7018C918F328D
:104FF00009F060C06FE270E0C7010E94CAF38C0143
:105000000F5F1F4F09F45CC06FE270E0C8010E949F
:10501000CAF35C01009709F454C00817190708F097
:1050200050C04C01801A910AA401B801CE018096AB
:105030000E94F3F3E0E2F0E0EC0FFD1FE80DF91D34
:1050400010828E01005E1F4FF80181918F0188232D
:1050500019F00E949238F8CF8AE00E94923860914D
:10506000D8127091D9126115710511F06C5F7F4FE4
:1050700021E0AE01405E5F4FCE0105960E946BAB12
:10508000811112C0BE01605E7F4F8FEB93E00E94E2
:105090004D418EE20E9492388AE00E949238C60109
:1050A0000E94C9C70C94761CD092D912C092D81213
:1050B0008501A6CF8AED92E19093D9128093D81200
:1050C00087018091D8129091D912009709F0049627
:1050D000B8010E94B0D3811103C0E7EAF3E021C018
:1050E000E9E9F3E084917F012FEFE21AF20A8823C5
:1050F00021F00E949238F701F5CFD8018D918D01F2
:10510000882319F00E949238F8CF8AE00E949238E2
:1051100010922715109228151092291510922A1511
:1051200016C084917F01BFEFEB1AFB0A882321F0A0
:105130000E949238F701F5CFF80181918F01882301
:1051400019F00E949238F8CF8EE20E949238C60180
:105150000E94C9C70C94761C80918C1281110E9408
:105160008767E090A803F090A90380E50E94D337F9
:10517000182F882319F00E949037182F80918D12D4
:10518000882311F40C94761C412F61E0C7010E9422
:105190005A6283E50E940238882381F00E946C37AE
:1051A000AB01BC0140932715509328156093291536
:1051B00070932A1587E594E10E9485D180918D1224
:1051C000882319F081E080938C1211110C94761CC5
:1051D00070CE8091A8039091A90321E020938B12B7
:1051E00040E060E00E945A620C94761C0E941960B4
:1051F0007B018C0120E831E541E050E00E94D9EFCD
:10520000C9016DE671E00E944AF34B015C01C801DF
:10521000B70120E13EE040E050E00E94D9EFCA0132
:10522000B90128E130E040E050E00E94D9EF762E4D
:10523000672EC62ED72E5CE3252E312C412C512C07
:10524000C801B701A20191010E94D9EFF62EE72E05
:10525000CA01B901A20191010E94D9EFCB018E01CF
:105260000F5F1F4F8114910499F0EF92FF927F938B
:105270006F936F927F92BF92AF929F928F928BEFBC
:1052800093E09F938F931F930F930E941BE913C08A
:10529000A114B104B1F0EF92FF927F936F936F92DC
:1052A0007F92BF92AF928BEE93E09F938F931F9369
:1052B0000F930E941BE90FB6F894DEBF0FBECDBF5F
:1052C00030C0CD2879F0EF92FF927F936F936F9269
:1052D0007F928FED93E09F938F931F930F930E9484
:1052E0001BE9E9CF892B69F0EF92FF927F936F93CF
:1052F00087ED93E09F938F931F930F930E941BE979
:10530000DACFEF92FF9283ED93E09F938F931F93F9
:105310000F930E941BE90F900F900F900F900F902A
:105320000F9060E0C8010E9425B3E8E0F5E38491A6
:105330007F01BFEFEB1AFB0A882321F00E9492380D
:10534000F701F5CFB8018FE094E00E944D418AE06B
:105350000E9492380C94761C83E50E9402388823C0
:1053600011F40C94761C0E947C37E82E80E50E9494
:105370000238882311F40C94761C0E946C37162F87
:10538000C62ED72ED7FE02C00C94761CE6EFF6E0B0
:105390008491181303C0EFECF4E10AC0319627E0C2
:1053A000EE31F207A9F70C94E1320E949238F8012D
:1053B00084918F010F5F1F4F8111F7CFECE1F4E073
:1053C00084918F010F5F1F4F882311F40C94761C7A
:1053D0000E949238F801F4CF0E9463CC0C94761CA2
:1053E0000E94D2CC0C94761C0E94EEBB0C94761CCE
:1053F00088E690E00E94063981110C94761C809119
:10540000C10983FF02C00C94761C83E50E94023818
:105410008823B1F10E94A0370E94A9F1CB010E941C
:105420008CB20E94A03720E030E04AEA52E40E94A9
:1054300083E918163CF00E94EEBB60E087E394E03D
:105440000E9407B30E94A0372091C5113091C61168
:105450004091C7115091C8110E949DF2181684F412
:105460008AE092E09F938F938BE294E09F938F93D7
:105470001F920E940ACC0F900F900F900F900F90E8
:105480000E9488410C94761C8EE40E940238882386
:1054900011F40C94761C0E946C376093B9157093CC
:1054A000BA158093BB159093BC150C94761C83E5BC
:1054B0000E94D337882359F083E50E94023888235D
:1054C00019F00E947C3701C080E08093C109E8E0B8
:1054D000F5E384918F010F5F1F4F811103C0E4E555
:1054E000F4E004C00E949238F801F3CF84918F0158
:1054F0000F5F1F4F882321F00E949238F801F6CFEA
:105500008091C109811103C0E0E5F4E034C046E4B4
:10551000C42E44E0D42EE12CF12C20E08091C1096E
:1055200090E00E2C02C0959587950A94E2F780FFD3
:1055300017C0BB24B394B20E222319F08CE20E9450
:105540009238F60185919491FC0184918F010F5F4F
:105550001F4F882321F00E949238F801F6CF2B2D9F
:105560003FEFE31AF30A42E0C40ED11C55E0E51602
:10557000F104A1F60AC084918F010F5F1F4F8823A9
:1055800021F00E949238F801F6CF8AE00E9492380A
:105590000C94761C109217010C94761C83E50E94E3
:1055A0000238811103C0E8E0F5E30DC00E947C37AA
:1055B00080937A018D3310F40C94761C8CE38093E5
:1055C0007A010C94761C84918F010F5F1F4F882302
:1055D00021F00E949238F801F6CF40917A0150E014
:1055E00060E070E084E694E00E94FA408AE00E9465
:1055F00092380C94761C8091C10983FF02C00C94F0
:10560000761C83E50E940238882311F40C94761CE2
:105610000E94A0370E94A9F16739710514F066E96C
:1056200070E070930F1660930E160E94DBA30C942B
:10563000761C89E690E00E940639811111C0EBE6E4
:10564000F4E084918F010F5F1F4F882321F00E94A7
:105650009238F801F6CF0E9445888AE00E9492387D
:105660001092BE151092BD150C94413383E50E9433
:105670000238882311F40C94761C0E947C378093A6
:10568000C3158D3318F08CE38093C3150E944BAE85
:105690006B017C012091C31530E0A8EEB3E00E94BD
:1056A0002DF0C60ED71EE81EF91EC092BF15D0926F
:1056B000C015E092C115F092C2150C94761C0E94A0
:1056C0004A8E0C94761C0E94A38C0C94761C83E565
:1056D0000E940238882339F00E946C378B016F3F9B
:1056E000710519F010F00FEF10E080E50E9402380C
:1056F000811106C010931116009310160C94761C9D
:105700000E947C3781110C94761CF4CF80E50E94B6
:105710000238811106C010921116109210160C94C6
:10572000761C0E946C37672B11F00C94761CF3CF1B
:105730001092A0030C94761C81E08093A0030C943B
:10574000761C83E50E9402388823A1F00E94A037CE
:1057500020E030E04AE754E40E94E9E90E94B0F119
:1057600060937B0170937C0180937D0190937E0117
:105770000C94761C88E50E94D33781113BC789E5DC
:105780000E94D337811136C78AE50E94D337811131
:1057900031C785E40E94D33781112CC70E948767E7
:1057A0000E94D1C70C94761C83E50E94D3378823CE
:1057B00011F40C94761C0E94A03720E030E04AE7F8
:1057C00054E40E94E9E90E94B0F16093C715709318
:1057D000C8158093C9159093CA150C94761CD601F0
:1057E0008D916D010E94D337882309F46DC0133069
:1057F00009F063C00E94A0374B015C0120E030E05B
:1058000040EA51E40E9483E987FF4EC0A50194015C
:1058100060919718709198188091991890919A18A2
:105820000E9437F12B013C019B01AC016091751185
:105830007091761180917711909178110E94E9E929
:10584000609375117093761180937711909378110E
:10585000A3019201609138117091391180913A1130
:1058600090913B110E94E9E96093381170933911CE
:1058700080933A1190933B1160916609709167098A
:1058800080916809909169090E9488E9A3019201B9
:105890000E94E9E90E94B0F160936609709367097C
:1058A000809368099093690980929718909298184C
:1058B000A0929918B0929A1807C00E94A037F701D9
:1058C00060837183828393831F5FF4E0EF0EF11C8A
:1058D000143009F084CF0E94D6420C94761C0E94AA
:1058E00087670E9486870C94761C0E949238F80184
:1058F00084918F010F5F1F4F8111F7CFE8E4F5E02E
:1059000003C00E949238F80184918F010F5F1F4FEE
:105910008111F7CFE1E3F5E003C00E949238F8016E
:1059200084918F010F5F1F4F8111F7CFE1E2F5E006
:1059300003C00E949238F80184918F010F5F1F4FBE
:105940008111F7CFE0E1F5E003C00E949238F80141
:1059500084918F010F5F1F4F8111F7CFEFEFF4E0BC
:1059600003C00E949238F80184918F010F5F1F4F8E
:105970008111F7CFE0EFF4E003C00E949238F80104
:1059800084918F010F5F1F4F8111F7CFEBEDF4E092
:1059900003C00E949238F80184918F010F5F1F4F5E
:1059A0008111F7CFE5ECF4E003C00E949238F801D2
:1059B00084918F010F5F1F4F8111F7CFE0EBF4E06F
:1059C00003C00E949238F80184918F010F5F1F4F2E
:1059D0008111F7CFE3E9F4E003C00E949238F801A7
:1059E00084918F010F5F1F4F8111F7CFEBE7F4E038
:1059F00084918F010F5F1F4F882311F40C94761C44
:105A00000E949238F801F4CF85E40E94D3378823AE
:105A100081F00E949037882361F0E8E0F5E38491FB
:105A20008F010F5F1F4F882321F00E949238F801E9
:105A3000F6CF81E40E94D337882381F00E9490370B
:105A4000882361F0E6E1F6E084918F010F5F1F4F3C
:105A5000882321F00E949238F801F6CF0091A80324
:105A60001091A903D8018D918D01882309F48DCD62
:105A70000E949238F7CF0E9439790C94761C81E00D
:105A80008093B303809315110C94761C1092B3038A
:105A9000109215110C94761C83E50E94023888231D
:105AA00019F00E946C3702C060E070E08B01112792
:105AB00002301105DCF0EFECF4E184918F010F5F0F
:105AC0001F4F811103C0EAE1F6E004C00E94923842
:105AD000F801F3CF84918F010F5F1F4F882311F4DA
