:100000000C9425210C9450210C9450210C945021D7
:100010000C9450210C9450210C9450210C9450219C
:100020000C9450210C940BD30C9450210C9450211F
:100030000C9450210C9406920C9450210C94502155
:100040000C9450210C94AB9A0C9421D00C94502118
:100050000C94503D0C9450210C9450210C94502140
:100060000C9450210C9450210C9486C80C9450216F
:100070000C9450210C9450210C9450210C9450213C
:100080000C9447900C9450210C945021084AD73B73
:100090003BCE016E84BCBFFDC12F3D6C74319ABD57
:1000A00056833DDA3D00C77F11BED9E4BB4C3E917B
:1000B0006BAAAABE000000803F05A84CCDB2D44E6A
:1000C000B93836A9020C50B9918688083CA6AAAA6C
:1000D0002ABE000000803F4D383420582059205A55
:1000E0002045006563686F3A0043616E6E6F74204F
:1000F000656E746572207375626469723A20004D92
:100100003234004D3233202573006175746F2569D8
:100110002E67004572726F723A006572726F7220BC
:1001200077726974696E6720746F2066696C650008
:100130004E6F74205344207072696E74696E67004C
:100140002F005344207072696E74696E6720627963
:10015000746520002E0044656C6574696F6E2066BE
:1001600061696C65642C2046696C653A20004669BB
:100170006C652064656C657465643A002E006F7070
:10018000656E206661696C65642C2046696C653A11
:10019000200057726974696E6720746F2066696CFD
:1001A000653A20002E006F70656E206661696C658F
:1001B000642C2046696C653A20002E006F70656ED5
:1001C000206661696C65642C2046696C653A200084
:1001D00046696C652073656C6563746564002053C3
:1001E000697A653A200046696C65206F70656E65B6
:1001F000643A20002E006F70656E206661696C6540
:10020000642C2046696C653A20004E6F7720667238
:100210006573682066696C653A20004E6F772064CC
:100220006F696E672066696C653A20002220706FE6
:1002300073002220706172656E743A220053554239
:10024000524F5554494E452043414C4C20746172E5
:100250006765743A2200747279696E6720746F2042
:1002600063616C6C207375622D67636F64652066D3
:10027000696C6573207769746820746F6F206D6195
:100280006E79206C6576656C732E204D4158206C1C
:100290006576656C2069733A002E0A0044656C65CA
:1002A00074696F6E2862696E29206661696C656485
:1002B0000046696C652862696E292064656C657406
:1002C00065640057726974696E6720746F2066698F
:1002D0006C653A20002E0A006F70656E20666169B9
:1002E0006C65642C2046696C653A20005344206399
:1002F000617264206F6B006F70656E526F6F742057
:100300006661696C656400766F6C756D652E696EEB
:100310006974206661696C656400534420696E6984
:1003200074206661696C006563686F3A00486172A9
:1003300064636F6465642044656661756C74205302
:10034000657474696E6773204C6F61646564002026
:1003500044002049002020204D33303120500050EF
:1003600049442073657474696E67733A00205A00BB
:1003700020590020204D323036205800486F6D65DE
:10038000206F666673657420286D6D293A002045DC
:1003900000205A0020580020420020540020204D08
:1003A000323035205300416476616E636564207697
:1003B00061726961626C65733A20533D4D696E20CC
:1003C000666565647261746520286D6D2F73292CD4
:1003D00020543D4D696E2074726176656C206665AF
:1003E00065647261746520286D6D2F73292C20421D
:1003F0003D6D696E696D756D207365676D656E74B1
:100400002074696D6520286D73292C20583D6D611D
:1004100078696D756D205859206A65726B20286D5A
:100420006D2F73292C20205A3D6D6178696D756D93
:10043000205A206A65726B20286D6D2F73292C203D
:1004400020453D6D6178696D756D2045206A657246
:100450006B20286D6D2F73290020540020204D3211
:100460003034205300416363656C65726174696F59
:100470006E3A20533D616363656C65726174696FA8
:100480006E2C20543D7265747261637420616363E5
:10049000656C65726174696F6E00204500205A00BA
:1004A00020590020204D3230312058004D617869AC
:1004B0006D756D20416363656C65726174696F6E03
:1004C00020286D6D2F7332293A00204500205A00F4
:1004D00020590020204D3230332058004D6178697A
:1004E0006D756D2066656564726174657320286D35
:1004F0006D2F73293A00204500205A002059002012
:10050000204D393220580053746570732070657225
:1005100020756E69743A006563686F3A00457272BF
:100520006F723A0053544F505045442E2000507281
:10053000696E7465722073746F7070656420647581
:100540006520746F206572726F72732E2046697811
:1005500020746865206572726F7220616E64207508
:100560007365204D39393920746F20726573746159
:1005700072742E202854656D706572617475726591
:100580002069732072657365742E20536574206929
:100590007420616674657220726573746172746927
:1005A0006E6729004B494C4C45442E20005072691F
:1005B0006E7465722068616C7465642E206B696C62
:1005C0006C28292063616C6C656421006F6B00529C
:1005D0006573656E643A20002200556E6B6E6F770E
:1005E0006E20636F6D6D616E643A20220043686116
:1005F0006E67652066696C616D656E74006C63641E
:1006000020636F6E74726173742076616C75653AE5
:1006100020007A5F6D696E3A2000795F6D696E3AED
:100620002000785F6D696E3A20005A3A00593A000E
:1006300020436F756E7420583A2000453A005A3AAC
:1006400000593A00583A004649524D574152455FC9
:100650004E414D453A4D61726C696E2056313B20DA
:10066000537072696E7465722F6772626C206D616F
:100670007368757020666F722067656E3620464914
:10068000524D574152455F55524C3A687474703A16
:100690002F2F7777772E6D656E64656C2D70617284
:1006A00074732E636F6D2050524F544F434F4C5F05
:1006B00056455253494F4E3A312E30204D41434812
:1006C000494E455F545950453A7777772E63787392
:1006D0007733642E636F6D2045585452554445520C
:1006E0005F434F554E543A3120555549443A3030C6
:1006F0003030303030302D303030302D3030303000
:100700002D303030302D30303030303030303030EF
:1007100030300A007777772E6378737733642E63EF
:100720006F6D209BFF2E0042656420646F6E652E06
:100730000020423A0020453A00543A0042656420C5
:1007400048656174696E672E0048656174696E67FB
:1007500020646F6E652E0020453A00543A004865CB
:100760006174696E672E2E2E002042403A002040B0
:100770003A00202F003A00205400202F0020423A57
:1007800000202F006F6B20543A002569206D696EA0
:100790002C2025692073656300456E642066696CB2
:1007A00065206C69737400426567696E2066696CC8
:1007B00065206C697374004E6F206D6F76652E0036
:1007C0008A8BC7C884FFFFFFFF00576169742066EA
:1007D0006F7220757365722E2E2E00D4D584202E54
:1007E0002EFFFFFF00FFFFFF00006B4300006B4385
:1007F000000082430000A0400000A0400000803FB5
:1008000000000000000000000000000000000000E8
:10081000000000000000000000006B4300006B437C
:1008200000008243256920686F7572732025692056
:100830006D696E7574657300446F6E6520707269C2
:100840006E74696E672066696C650053544F505032
:1008500045442E20005072696E7465722073746F67
:10086000707065642064756520746F206572726FA6
:1008700072732E2046697820746865206572726FE5
:100880007220616E6420757365204D39393920748A
:100890006F20726573746172742E202854656D70B8
:1008A0006572617475726520697320726573657411
:1008B0002E205365742069742061667465722072FD
:1008C000657374617274696E6729006F6B004E6F97
:1008D000204C696E65204E756D6265722077697473
:1008E0006820636865636B73756D2C204C6173744D
:1008F000204C696E653A20004E6F20436865636B3B
:1009000073756D2077697468206C696E65206E75EB
:100910006D6265722C204C617374204C696E653A6F
:100920002000636865636B73756D206D69736D611D
:100930007463682C204C617374204C696E653A2096
:10094000004C696E65204E756D626572206973207A
:100950006E6F74204C617374204C696E65204E7507
:100960006D6265722B312C204C617374204C696E62
:10097000653A20004D31313000446F6E652073615F
:1009800076696E672066696C652E006F6B004D326C
:1009900039002020506C616E6E6572427566666526
:1009A0007242797465733A20002046726565204D65
:1009B000656D6F72793A20004D61722032382032B5
:1009C00030313800436F6D70696C65643A200028DF
:1009D000456E646572332900207C20417574686F10
:1009E000723A20004D617220323820323031382086
:1009F00030393A31363A353000204C617374205525
:100A00007064617465643A2000312E302E30004DE0
:100A100061726C696E200020536F66747761726535
:100A200020526573657400205761746368646F6752
:100A3000205265736574002042726F776E206F7567
:100A400074205265736574002045787465726E6118
:100A50006C20526573657400506F77657255700035
:100A600073746172740062696E004D3131372049D0
:100A70004E56414C494420444154412E004D3131A1
:100A800037205072696E74696E672E2E2E004730C3
:100A9000205A2573004732382058302059300047FB
:100AA00030205A257300473932205A2573204525B6
:100AB000730062696E002200656E717565696E670C
:100AC0002022007C3C3E5E2B3D3F2F5B5D3B2C2A71
:100AD000225C0045313A200045303A20005A3A2045
:100AE00000593A2000583A20004D53312C4D5332D2
:100AF0002050696E730A0024F404D9201BC40C5CD6
:100B00000E9804C4095F0265077101F405F900FB42
:100B100004B30048048700C103690058035500036B
:100B2000034500BE023A008402310053022A002924
:100B300002250004022000E4011C00C8011900AFD6
:100B40000117009801140084011300710110006165
:100B500001100051010E0043010D0036010B002B66
:100B6000010B0020010B00150109000C0109000315
:100B7000010800FB000800F3000800EB000700E498
:100B8000000600DE000600D8000600D2000600CCF9
:100B9000000500C7000500C2000500BD000400B943
:100BA000000400B5000400B1000400AD000400A979
:100BB000000400A5000300A20003009F0004009BA6
:100BC00000030098000300950002009300030090CA
:100BD0000003008D0002008B0003008800020086E5
:100BE00000020084000300810002007F0002007DFB
:100BF0000002007B0002007900020077000100760D
:100C00000002007400020072000100710002006F17
:100C10000002006D0001006C0002006A0001006922
:100C20000002006700010066000100650001006429
:100C30000002006200010061000100600001005F2D
:100C40000002005D0001005C0001005B0001005A31
:100C50000001005900010058000100570001005632
:100C60000001005500010054000100530000005332
:100C70000001005200010051000100500001004F2E
:100C80000001004E0000004E0001004D0001004C2C
:100C90000001004B0000004B0001004A0001004928
:100CA0000001004800000048000100470001004624
:100CB000000000460001004500000045000100441E
:100CC0000001004300000043000100420000004218
:100CD0000001004100000041000100400001003F10
:100CE0000000003F0001003E0000003E0001003D0A
:100CF0000000003D0001003C0000003C0000003C02
:100D00000001003B0000003B0001003A0000003AF7
:100D100000010039000000390001003800000038EF
:100D200000000038000100370000003700010036E5
:100D300000000036000000360001003500000035DC
:100D400000000035000100340000003400000034D1
:100D500000010033000000330000003300010032C6
:100D600000000032000000320001003100000031BC
:100D700000000031000100300000003000000030B1
:100D80000001002F0000002F0000002F0000002FA6
:100D90000001002E0000002E0000002E0001002D9A
:100DA0000000002D0000002D0000002D0001002C8F
:100DB0000000002C0000002C0000002C0001002B83
:100DC0000000002B0000002B0000002B0001002A77
:100DD0000000002A0000002A0000002A000100296B
:100DE000000000290000002900000029000000295F
:100DF0000001002800000028000000280000002852
:100E00000000002800010027000000270000002744
:100E10000000002700000027000100260000002637
:100E2000000000260000002600000026000100252A
:100E3000000000250000002500000025000000251E
:100E40000000002500010024000000240000002410
:100E50000000002400000024000100230000002303
:100E600000000023000000230000002300000023F6
:100E700000000023000100220000002200000022E8
:100E800000000022000000220000002200010021DA
:100E900000000021000000210000002100000021CE
:100EA00000000021000000210001002000000020BF
:100EB00000000020000000200000002000000020B2
:100EC00000000020000000200001001F0000001FA3
:100ED0000000001F0000001F0000001F0000001F96
:100EE0000000001F0001001E0000001E0000001E88
:100EF0000000001E00000024F4D43050C38E20C235
:100F0000A24017828B7011127A910D816CD90AA8B8
:100F100061E108C7586607615143061E4B5D05C174
:100F200045A7041A411104093D9803713931034062
:100F300036DB0265339102D4305402802E1D0263E9
:100F40002CEE01752AC501B028A001102781018F60
:100F50002564012B244B01E0223401AC211F018DBB
:100F6000200D01801FFC00841EED00971DDF00B8DE
:100F70001CD200E61BC600201BBC00641AB200B2E3
:100F800019A8000A19A0006A189900D11791004009
:100F9000178B00B516840031167E00B31579003A20
:100FA000157300C7146F0058146A00EE13660088AA
:100FB00013630025135E00C7125B006C1257001507
:100FC000125400C111510070114F0021114B00D675
:100FD0001049008D1047004610440002104200C026
:100FE0000F4000800F3E00420F3C00060F3B00CB3D
:100FF0000E3800930E37005C0E3500270E3400F3D8
:101000000D3200C10D3100900D3000600D2E003208
:101010000D2D00050D2C00D90C2B00AE0C290085E0
:101020000C29005C0C2700350C27000E0C2600E86C
:101030000B2400C40B2400A00B23007D0B23005ABB
:101040000B2100390B2100180B2000F80A1F00D9D2
:101050000A1E00BB0A1E009D0A1D00800A1D0063B7
:101060000A1C00470A1B002C0A1B00110A1A00F771
:10107000091A00DD091900C4091900AB0919009209
:101080000917007B091800630917004C0916003680
:10109000091600200916000A091500F5081500E0D8
:1010A000081400CC081400B8081400A40814009018
:1010B0000813007D0812006B081300580812004640
:1010C0000812003408110023081100120811000151
:1010D000081100F0071000E0071000D0071000C052
:1010E000071000B0070F00A107100091070E008342
:1010F000070F0074070F0065070E0057070E004921
:10110000070E003B070D002E070E0020070D0013F1
:10111000070D0006070D00F9060C00ED060D00E0B6
:10112000060C00D4060C00C8060C00BC060C00B06F
:10113000060C00A4060B0099060C008D060B00821D
:10114000060B0077060B006C060B0061060A0057C1
:10115000060B004C060A0042060A0038060A002E5A
:10116000060A0024060A001A060A001006090007EB
:10117000060A00FD050900F4050900EB050900E277
:10118000050900D9050900D0050900C7050900BEF9
:10119000050900B5050800AD050800A50509009C76
:1011A000050800940508008C050800840508007CEB
:1011B000050800740508006C050700650508005D5A
:1011C000050700560508004E0507004705070040C3
:1011D00005080038050700310507002A0507002328
:1011E0000507001C050600160507000F0507000887
:1011F00005060002050700FB040600F5040700EEE3
:10120000040600E8040600E2040700DB040600D53B
:10121000040600CF040600C9040600C3040600BD8E
:10122000040600B7040600B1040500AC040600A6DD
:10123000040600A00405009B040600950405009028
:101240000406008A04050085040500800406007A6F
:1012500004050075040500700405006B04050066B4
:10126000040500610405005C0405005704050052F4
:101270000405004D04050048040500430405003E34
:101280000404003A04050035040500300404002C71
:1012900004050027040400230405001E0404001AAA
:1012A00004040016040500110404000D04040009E0
:1012B0000405000404040000040400FC030400F816
:1012C000030400F4030400F0030400EC030400E84A
:1012D000030400E4030400E0030400DC030400D87A
:1012E000030400D4030400D0030400CC030400C8AA
:1012F000030300C50303006563686F3A00656E640D
:1013000073746F7073206869743A205A00205A3AD7
:1013100000656E6473746F7073206869743A205945
:101320000020593A00656E6473746F7073206869A9
:10133000743A20580020583A00656E6473746F70D8
:1013400073206869743A20004572726F723A0045E2
:1013500072723A204D415854454D50204245440048
:1013600054656D706572617475726520686561742D
:1013700065642062656420737769746368656420BE
:101380006F66662E204D415854454D502074726949
:10139000676765726564202121004572723A204DAD
:1013A000494E54454D50003A204578747275646535
:1013B00072207377697463686564206F66662E2097
:1013C0004D494E54454D502074726967676572658A
:1013D000642021004572723A204D415854454D50C9
:1013E000003A204578747275646572207377697469
:1013F00063686564206F66662E204D415854454DE4
:101400005020747269676765726564202100202D21
:1014100020496E76616C69642065787472756465C4
:1014200072206E756D62657220210070012C019032
:10143000012701B0012201C0011D01F001180110B6
:1014400002130130020E016002090190020401C082
:1014500002FF000003FA004003F5008003F000D013
:1014600003EB002004E6007004E100E004DC00402F
:1014700005D700C005D2004006CD00D006C80080C8
:1014800007C3003008BE00F008B900C009B400B0BE
:101490000AAF00B00BAA00D00CA500000EA00050AF
:1014A0000F9B00C01096005012910000148C00C0D9
:1014B000158700B0178200B0197D00D01B7800009E
:1014C0001E730040206E0090226900F024640040EA
:1014D000275F0090295A00E02B5500102E50002065
:1014E000304B0010324600E033410090353C001094
:1014F00037370070383200A0392D00B03A2800A0EC
:101500003B2300603C1E00103D1900903D1400106C
:101510003E0F00703E0A00C03E0500003F00005034
:101520004944204175746F74756E652066696E69F3
:1015300073686564212050757420746865204B7051
:101540002C204B6920616E64204B6420636F6E73A6
:1015500074616E747320696E746F20436F6E666978
:101560006775726174696F6E2E680050494420413E
:1015700075746F74756E65206661696C6564212091
:1015800074696D656F75740020403A006F6B20546C
:101590003A006F6B20423A00504944204175746F05
:1015A00074756E65206661696C6564212054656D93
:1015B000706572617475726520746F6F20686967F9
:1015C0006800204B643A2000204B693A2000204BF1
:1015D000703A200020436C617369632050494420B5
:1015E000002054753A2000204B753A2000206D6190
:1015F000783A2000206D696E3A200020643A20007D
:1016000020626961733A20000000000000000000C1
:1016100000000000003FFFF000000000000000009C
:101620000000000000380070000000000000000012
:1016300000000000003387300000000000000000C0
:10164000000000000027879000000000000000005C
:1016500000000000002F87D0000000000000000004
:1016600000000000002F87D00000000000000000F4
:1016700000000000002F03D0F80180000C1FE000E4
:10168000000820800020301048008000123FF00049
:10169000000410400020781043C38CD0023FF000BB
:1016A000000410400020781071249267CC3FF000B5
:1016B000000820800020301041249E40021FE000DE
:1016C00000104100002F03D049249040121FE00079
:1016D00000208200002F87D0FBB3CEE00C3FF0004B
:1016E00000208200002F87D000000000003FF000A3
:1016F000001041000027879000000000003FF0002C
:10170000000820800033873000000000000FC00078
:10171000000000000038007000000000000780009A
:1017200000FFFFC0003FFFF00000000000030000CA
:1017300000FFFFC0000000000000000000000000EB
:1017400000000000003FFFF000000000000000006B
:1017500000000000003800700000000000000000E1
:10176000000000000030FC3000000000000000001D
:10177000000000000020FC1000000000000000003D
:1017800000000000002078100000000000000000B1
:1017900000000000002030100000000000000000E9
:1017A00000000000002C00D0F80180000C1FE000B9
:1017B00000104100002E31D048008000123FF000A0
:1017C00000082080002F7BD043C38CD0023FF00064
:1017D00000082080002F7BD071249267CC3FF0005E
:1017E00000104100002E31D041249E40021FE00035
:1017F00000208200002C00D049249040121FE000FD
:101800000041040000203010FBB3CEE00C3FF0009C
:10181000004104000020781000000000003FF000AC
:10182000002082000020FC1000000000003FF000BB
:10183000001041000030FC3000000000000FC0002C
:101840000000000000380070000000000007800069
:1018500000FFFFC0003FFFF0000000000003000099
:1018600000FFFFC0000000005900B02000B02000C1
:10187000B02000B020002D2D3A2D2D004D3231002A
:10188000496E69742E2053442D4361726400C08CEC
:101890008D8EFFFFFFFF004D3231004368616E67A0
:1018A000652053442D4361726400D38C8D8EFFFFFD
:1018B000FFFF00CFD28A8B00D0D18A8BFFFFFFFFC2
:1018C00000CECF8A8BFFFFFFFF00B5B6FFFF008879
:1018D00089FFFF00CCCDFFFF00BCBDBEBFFFFFFFF7
:1018E000FF00F92E2E00F8CACBFFFF00949596005A
:1018F0004D3234004D3233202573004D383420589A
:101900002059205A2045004732382058302059307D
:10191000004D3130362053323535004D31303920CD
:10192000532569004D31393020532569004732383D
:1019300020583020593000C7C893C9A3A4FFFFFF27
:10194000FF00A8B0FFFF0094959600B3B4AFB0FFBE
:10195000FFFFFF00B3B4AFB0FFFFFFFF00A6B2FF71
:10196000FF00A6B2FFFF00AB93B1FFFFFF00AB93F8
:10197000B1FFFFFF00B5B6FFFF00AD98AEFFFFFF60
:1019800000A7A8FFFF00A5A62041425300A5A6205E
:10199000504C4100473238009798A0A1A2004D3822
:1019A00034009B9C9D9E9F9800949596004D6F7669
:1019B0006520302E316D6D004D6F766520316D6D77
:1019C000004D6F76652031306D6D008889FFFF0016
:1019D0004578747275646572004D6F7665205A00A3
:1019E0004D6F76652059004D6F7665205800AD9893
:1019F000AEFFFFFF004578747275646572005A008F
:101A0000590058004D363030004368616E676520DC
:101A100066696C616D656E7400466C6F7700466C2C
:101A20006F7700B3B4AFB0FFFFFFFF00B3B4AFB048
:101A3000FFFFFFFF00A6B2FFFF00A6B2FFFF00AB53
:101A400093B1FFFFFF00AB93B1FFFFFF00AFB0FF0B
:101A5000FF00AFB0FFFF00949596004E6F005965F0
:101A60007300D0D18A8BFFFFFFFF3F00FFFFFFFF16
:101A7000FFFFFFFFFFFFFFFFFFFFFFFFFFFFFFFF76
:101A8000FFFFFFFFFFFFFFFFFFFFFFFFFFFFFFFF66
:101A9000FFFFFFFFFFFFFFFFFFFFFFFFFFFFFFFF56
:101AA000FFFFFFEFFFFFFFFFFFFFFFFFFFFFFFFF56
:101AB000FFFFFFEFEFFFFFFFFFFFFFFFFFFFFFFF56
:101AC000FFFFFFE7DFFFFFFFFFFFFFFFFFFFFFFF5E
:101AD000FFFFFFE7DFFFFFFFFFFFFFFFFFFFFFFF4E
:101AE000FFFFFFE3DFFFFFFFFFFFFFFFFFFFFFFF42
:101AF000FFFFFFF3CFFFFFFFFFFFFFFFFFFFFFFF32
:101B0000FFFFE1E1CFFFFFFFFFFFFFFFFFFFFFFF51
:101B1000FE78000003DDFFFFFFFFFFFFFFFFFFFE7A
:101B2000FF807E0001EEFFFFFFFFFFFFFFFFFFFED4
:101B30007DCFFC0000F77FFFFFFFFFFFFFFFFFFFF0
:101B40008E060000007BBFFFFFFFFFFFFFFFFFFFD0
:101B5000C0000000007DDFFFFFFFFFFFFFFFFFFF72
:101B6000FC01FE00003EE7FFFFFFFFFFFFFFFFFF5E
:101B7000FFFFFC00031F73FFFFFFFFFFFFFFFFFFDF
:101B8000FFFFF800018F81FFFFFFFFFFFFFFFFFF57
:101B9000FFFFE0000083F9FFFFFFFFFFFFFFFFFFF4
:101BA000FFFF00FC0000F0FFFFFFFFFFFFFFFFFF54
:101BB000FFE00FFFC00000FFFFFFFFFFFFFFFFFF81
:101BC000FE03FFFFC00000FFFFFFFFFFFFFFFFFF5F
:101BD000FFFFFFF9000000FFFFFFFFFFFFFFFFFF18
:101BE000FFFFFFFC0007C0FFFFFFFFFFFFFFFFFF3E
:101BF000FFFFFFFF0007E0FFFFFFFFFFFFFFFFFF0B
:101C0000FFFFFFFFE007F1FFFFFFFFFFFFFFFFFF09
:101C1000FFFFFFFFFC07F9FFFFFFFFFFFFFFFFFFD5
:101C2000FFFFFFFFFF03F9FFFFFFFFFFFFFFFFFFC6
:101C3000FFFFFFFFFF83F9FFFFFFFFFFFFFFFFFF36
:101C4000FFFFFFFFFFC3FFFFFFFFFFFFFFFFFFFFE0
:101C5000FFFFFFFFFFE1FFFFFFFFFFFFFFFFFFFFB2
:101C6000FFFFFFFFFFF0BFFFFFFFFFFFFFFFFFFFD3
:101C7000FFFFFFFFFBF83FFFFFFFFFFFFFFFFFFF3F
:101C8000FFFFFFFFF9F83FFFFFFFFFFFFFFFFFFF31
:101C9000FFFFFFFF7EF0FFFFFFFFFFFFFFFFFFFFE4
:101CA000FFFFFFFF8E03FFFFFFFFFFFFFFFFFFFFB1
:101CB000FFFFFFFFE01FFFFFFFFFFFFFFFFFFFFF33
:101CC000FFFFFFFFFFFFFFFFFFFFFFFFFFFFFFFF24
:101CD000FFFFFFFFFFFFFFFFFFFFFFFFFFFFFFFF14
:101CE000FFFFFFFFFFFF7FFFFFFFFFFFFFFFFFFF84
:101CF00000007FFFFFF87FFFFFFFFFFFFFFFFFFFF9
:101D000080007FFFFFE07FFFFFFFFFFFFFFFFFFF80
:101D1000C3FCFFFFFFF8FFFFFFFFFFFFFFFFFFFF19
:101D2000C3FCFFFFFFF8FFFFFFFFFFFFFFFFFFFF09
:101D300087FDFFFFFFF1FFFFFFFFFFFFFFFFFFFF3B
:101D400087FFFFFFFFF1FFFFFFFFFFFFFFFFFFFF29
:101D50000FE7F30FFC23FC3FFFFFFFFFFFFFFFFF39
:101D60000FEF8007F003F01E007FFFFFFFFFFFFE75
:101D70001FCF8187C787C70C007FFFFFFFFFFFFED4
:101D8000001FC7C78FC79F0F0CFFFFFFFFFFFFFE9E
:101D9000001F878F1F8F1F0F1FFFFFFFFFFFFFFC1D
:101DA0003F9F8F8F1F8E001E3FFFFFFFFFFFFFFC37
:101DB0007F3F0F1E3F1E3FFE3FFFFFFFFFFFFFF86D
:101DC0007FFF1F1C3F1C7FFC7FFFFFFFFFFFFFF813
:101DD000FFFF1E1C7E1C7FFC7FFFFFFFFFFFFFF04D
:101DE000FFCE3E3C7E3C7FB8FFFFFFFFFFFFFFF0D2
:101DF000FF9E3C387C387E78FFFFFFFFFFFFFFE14E
:101E0000FF3C7C787C783CF1FFFFFFFFFFFFFFE1A8
:101E1000F8387878101801F1FFFFFFFFFFFFFF008F
:101E20000060203C007C07807FFFFFFFFFFFFFFF7B
:101E3000FFFFFFFE1FFE1FFFFFFFFFFFFFFFFFFF74
:101E4000FFFFFFFFFFFFFFFFFFFFFFFFFFFFFFFFA2
:101E5000FFFFFFFFFFFFFFFFFFFFFFFFFFFFFFFF92
:101E6000FFFFFFFFFFFFFFFFFFFFFFFF000609006F
:101E7000FE06018902FE20FFFE07FE06FE000000AE
:101E800006000701060606020080808080008003AD
:101E90000303060103A0A0A00507070600FF50509A
:101EA000F850F850500509090600FE2070A8A070EF
:101EB00028A870200608080600FF40A848102048FF
:101EC00054080507070600FF60909060989068012D
:101ED00003030602038080800207070602FF40809A
:101EE00080808080400207070602FF80404040401B
:101EF00040800505050600008850F8508805050556
:101F00000600002020F820200204040602FEC04043
:101F10004080050101060002F8020202060200C02C
:101F2000C00406060601001010204080800406064A
:101F30000601006090909090600306060601004044
:101F4000C0404040E00406060601006090102040BA
:101F5000F0040606060100F020601010E0050606F9
:101F600006000010305090F810040606060100F03C
:101F700080E01010E00406060601006080E090900A
:101F800060040606060100F010102040400406061A
:101F900006010060906090906004060606010060F3
:101FA0009090701060020505060200C0C000C0C01D
:101FB0000207070602FEC0C000C0404080050505BC
:101FC0000600001860806018050303060001F80091
:101FD000F8050505060000C0300830C004070706F4
:101FE0000100609010604000400506060600007089
:101FF00090A8B08070050606060000205088F8887A
:1020000088050606060000F088F08888F0040606B9
:10201000060100609080809060040606060100E0E2
:1020200090909090E0040606060100F080E0808029
:10203000F0040606060100F080E0808080040606B9
:10204000060100609080B0906004060606010090D2
:1020500090F0909090030606060100E0404040405A
:10206000E005060606000038101010906004060611
:1020700006010090A0C0A090900406060601008012
:1020800080808080F005060606000088D8A8A88811
:102090008804060606010090D0B0909090050606D0
:1020A000060000708888888870040606060100E033
:1020B0009090E080800407070601FF609090D0B008
:1020C0006010040606060100E09090E0909004067F
:1020D000060601006090402090600506060600009C
:1020E000F820202020200406060601009090909001
:1020F0009060040606060100909090F0606005066E
:10210000060600008888A8A8D888050606060000EC
:102110008850202050880506060600008888502038
:102120002020040606060100F010204080F003067F
:1021300006060100E080808080E0040606060100BB
:10214000808040201010030606060100E0202020B9
:1021500020E0050303060003205088050101060066
:10216000FEF8020202060204804004040406010094
:10217000709090700406060601008080E09090E068
:102180000404040601007080807004060606010045
:1021900010107090907004040406010060B0C070CC
:1021A000040606060100205040E0404004060606F2
:1021B00001FE6090907010600406060601008080A9
:1021C000E09090900306060601004000C04040E009
:1021D0000308080601FE200060202020A04004061D
:1021E000060601008080A0C0A0900306060601003C
:1021F000C040404040E0050404060000D0A8A88884
:10220000040404060100E090909004040406010018
:10221000609090600406060601FEE09090E08080E9
:102220000406060601FE7090907010100404040667
:102230000100A0D0808004040406010070C030E0DA
:102240000406060601004040E04050200404040655
:10225000010090909070040404060100909060606A
:1022600005040406000088A8A85004040406010020
:10227000906060900406060601FE90909070906059
:10228000040404060100F02040F0030707060100E3
:10229000204040804040200107070602FF808080E8
:1022A0008080808003070706010080404020404076
:1022B0008004020206010350A0FFFFFFFFFFFFFFA3
:1022C000FFFFFFFFFFFFFFFFFFFFFFFFFFFFFFFF1E
:1022D000FFFFFFFFFFFFFFFFFFFF000000060007FB
:1022E0000106060602008000808080800406060643
:1022F00001FF2070A0A070200507070600FF3048EE
:1023000040F04040F8050505060000A8508850A898
:102310000506060600008850F820F8200107070689
:1023200002FF808080008080800407070601FF7024
:102330008060906010E0030101060105A006070718
:10234000060000788494A4948478030505060101AE
:1023500060A06000E00505050600002850A0502898
:10236000040303060100F01010040101060102F04D
:102370000607070600007884B4A4A4847804010149
:10238000060105F0040303060102609060050707DB
:102390000600FF2020F8202000F8030505060101B3
:1023A00040A02040E0030505060101C0204020C0F8
:1023B00002020206020440800405050601FF909017
:1023C000B0D08005060606000078E8E868282801F5
:1023D0000101060202800202020602FE408003059D
:1023E0000506010140C04040E0030505060101402B
:1023F000A04000E0050505060000A0502850A005FB
:1024000008080600FF40C0405070307810050808EA
:102410000600FF40C0405068081038050808060054
:10242000FFC0204030F0307810040707060100207C
:1024300000206080906005070706000040202050C3
:1024400070888805070706000010202050708888D3
:1024500005070706000020502050708888050707F0
:1024600006000028502050708888050707060000E5
:102470005000205070888805070706000020502073
:102480005070888805060606000078A0F0A0A0B865
:102490000408080601FE60908080906020400407D8
:1024A000070601004020F080E080F00407070601E5
:1024B000002040F080E080F0040707060100205073
:1024C000F080E080F00407070601005000F080E093
:1024D00080F00307070601008040E0404040E00331
:1024E00007070601002040E0404040E003070706E0
:1024F000010040A0E0404040E0030707060100A0C3
:1025000000E0404040E00506060600007048E8484C
:10251000487004070706010050A090D0B0909004C6
:1025200007070601004020609090906004070706AE
:102530000100204060909090600407070601002091
:1025400050609090906004070706010050A06090D2
:102550009090600407070601005000609090906022
:10256000050505060000885020508804080806016B
:10257000FF1070B0B0D0D0E0800407070601004023
:1025800020909090906004070706010020409090F2
:102590009090600407070601002050909090906092
:1025A000040707060100500090909090600507070F
:1025B0000600001020885020202004060606010096
:1025C00080E09090E0800406060601006090A0A0E4
:1025D00090A004070706010040200070909070044E
:1025E000070706010020400070909070040707065E
:1025F0000100205000709090700407070601005001
:10260000A0007090907004060606010050007090C3
:10261000907004070706010020502070909070050C
:10262000040406000070A8B0780406060601FE70D7
:10263000808070204004070706010040200060B041
:10264000C07004070706010020400060B0C070049D
:10265000070706010020500060B0C070040606069F
:102660000100500060B0C070030707060100804001
:1026700000C04040E0030707060100204000C040C2
:1026800040E003070706010040A000C04040E0030F
:102690000606060100A000C04040E004070706014E
:1026A000003060107090906004070706010050A091
:1026B00000E0909090040707060100402000609021
:1026C00090600407070601002040006090906004BD
:1026D000070706010020500060909060040707067D
:1026E000010050A0006090906004060606010050B2
:1026F00000609090600505050600002000F80020AD
:1027000004040406010070B0D0E0040707060100CD
:1027100040200090909070040707060100204000C0
:102720009090907004070706010020500090909050
:10273000700406060601005000909090700409098C
:102740000601FE20400090909070906004080806FA
:1027500001FE8080E09090E080800408080601FE81
:10276000500090909070906000060900FE0701995B
:10277000032B20FFFE08FE07FE00000006000001FC
:102780000707060200808080808000800303030624
:102790000104A0A0A00507070600005050F850F85B
:1027A00050500507070600002070A0702870200513
:1027B000070706000048A8502050A8900507070604
:1027C000000040A0A040A890680103030602048016
:1027D000808003070706010020408080804020039E
:1027E00007070601008040202020408005050506DF
:1027F00000018850F850880505050600012020F8E2
:1028000020200303030601FF60408005010106004C
:1028100003F80303030601FF40E040050707060035
:10282000000808102040808005070706000020509F
:1028300088888850200507070600002060A0202017
:1028400020F8050707060000708808304080F8056A
:102850000707060000F8081030088870050707060B
:10286000000010305090F81010050707060000F81F
:1028700080B0C8088870050707060000304080B0A7
:10288000C88870050707060000F8081010204040AF
:10289000050707060000708888708888700507079C
:1028A000060000708898680810600307070601FF9B
:1028B00040E0400040E0400307070601FF40E040E1
:1028C000006040800407070601001020408040207F
:1028D00010050303060002F800F8040707060100CC
:1028E00080402010204080050707060000708810F7
:1028F00020200020050707060000708898A8B080F7
:102900007005070706000020508888F888880507AA
:1029100007060000F04848704848F0050707060021
:102920000070888080808870050707060000F048E6
:1029300048484848F0050707060000F88080F08006
:1029400080F8050707060000F88080F08080800589
:1029500007070600007088808098887005070706C2
:102960000000888888F8888888030707060100E047
:102970004040404040E005070706000038101010B6
:102980001090600507070600008890A0C0A09088FE
:10299000050707060000808080808080F805070713
:1029A0000600008888D8A8888888050707060000E0
:1029B0008888C8A898888805070706000070888856
:1029C00088888870050707060000F08888F08080F6
:1029D000800508080600FF7088888888A8700805A8
:1029E0000707060000F08888F0A090880507070612
:1029F000000070888070088870050707060000F8DE
:102A000020202020202005070706000088888888CD
:102A10008888700507070600008888885050502075
:102A2000050707060000888888A8A8D88805070732
:102A30000600008888502050888805070706000097
:102A400088885020202020050707060000F808107D
:102A5000204080F8030707060100E0808080808026
:102A6000E0050707060000808040201008080307E3
:102A700007060100E02020202020E00503030600D7
:102A8000042050880501010600FFF8020202060238
:102A9000068040050505060000700878887805075F
:102AA000070600008080B0C888C8B005050506008C
:102AB000007088808870050707060000080868987D
:102AC0008898680505050600007088F8807005077D
:102AD00007060000304840F0404040050707060068
:102AE000FE788888780888700507070600008080CF
:102AF000B0C88888880307070601004000C040402E
:102B000040E00409090601FE1000301010109090FA
:102B10006005070706000080808890E09088030722
:102B200007060100C04040404040E00505050600A2
:102B300000D0A8A8A888050505060000B0C88888A8
:102B40008805050506000070888888700507070657
:102B500000FEB0C888C8B080800507070600FE6880
:102B6000988898680808050505060000B0C88080A8
:102B70008005050506000070807008F0050707064F
:102B800000004040F0404048300505050600008840
:102B9000888898680505050600008888505020053B
:102BA00005050600008888A8A85005050506000050
:102BB00088502050880507070600FE888898680816
:102BC0008870050505060000F8102040F804070786
:102BD000060100304020C0204030010707060200F7
:102BE00080808080808080040707060100C020402C
:102BF000304020C005030306000448A890000000F0
:102C000001000000000001000000000001000000C1
:102C100000000100000000000100000000000100B1
:102C200000000000010000000000010000000000A2
:102C30000100000000000100000000000100000091
:102C40000000010000000000010000000000010081
:102C50000000000001000000000001000000000072
:102C60000100000000000100000000000100000061
:102C70000000010000000000010000000000010051
:102C80000000000001000000000001000000000042
:102C90000100000000000100000000000100000031
:102CA0000000010000000000010000000000010021
:102CB0000000000001000000000001000000000012
:102CC0000100000000000600000107070602008066
:102CD0000080808080800507070600FF2078A0A084
:102CE000A07820050707060000304840E04048B0C3
:102CF0000505050600008870507088050808060064
:102D0000FF88885020F82020200107070602008055
:102D10008080008080800508080600FF7080E090B9
:102D200048380870030101060107A00507070600DF
:102D3000007088A8C8A88870040606060101709073
:102D4000B05000F006050506000024489048240411
:102D50000202060102F010040101060103F005075A
:102D6000070600007088E8C8C888700501010600E1
:102D700007F803030306010440A040050606060009
:102D8000002020F82020F8040505060103609020AB
:102D900040F0040505060103E0106010E0020202A5
:102DA00006020640800506060600FF888888C8B02F
:102DB0008005070706000078E8E868282828010150
:102DC00001060203800202020602FE40800305059E
:102DD00006010340C04040E0040606060101609081
:102DE000906000F006050506000090482448900613
:102DF00009090600FF40C04040E40C143C040609E9
:102E0000090600FF40C04040E81404081C050909F9
:102E10000600FFC0204020C81828780805070706CC
:102E200000002000202040887005080806000040AF
:102E300020708888F888880508080600001020702F
:102E40008888F8888805080806000020507088885F
:102E5000F8888805080806000048B0708888F88857
:102E6000880508080600005000708888F8888805E2
:102E700008080600002050708888F8888806070730
:102E80000600003C50909CF0909C0509090600FE4D
:102E90007088808080887020400508080600004007
:102EA000F88080F08080F805080806000010F8809F
:102EB00080F08080F805080806000020F88080F087
:102EC0008080F805080806000050F88080F08080B7
:102ED000F80308080601008040E040404040E0035D
:102EE00008080601002040E040404040E003080898
:102EF00006010040A0E040404040E0030808060111
:102F000000A000E040404040E0050707060000F058
:102F10004848E84848F0050808060000285088C8D6
:102F2000A8988888050808060000402070888888CE
:102F3000887005080806000010207088888888704E
:102F400005080806000020507088888888700508E9
:102F500008060000285070888888887005080806D0
:102F600000005000708888888870050505060000FC
:102F70008850205088050707060000709898A8C858
:102F8000C870050808060000402088888888887076
:102F900005080806000010208888888888700508C1
:102FA00008060000205000888888887005080806F8
:102FB000000050008888888888700508080600008E
:102FC000102088885020202005070706000080F088
:102FD00088F0808080050707060000708890A09028
:102FE00088B005080806000040200070087888783E
:102FF0000508080600001020007008788878050889
:103000000806000020500070087888780508080637
:10301000000028500070087888780507070600002F
:1030200050007008788878050808060000205020B5
:10303000700878887806050506000078147C907C76
:103040000507070600FE7088808870204005080884
:103050000600004020007088F8807005080806000F
:10306000001020007088F880700508080600002015
:1030700050007088F8807005070706000050007047
:1030800088F88070030808060100804000C04040B6
:1030900040E0030808060100408000C0404040E0D6
:1030A00003080806010040A000C0404040E0060AB6
:1030B0000A0600FEA4A800FC8480808084FC060A26
:1030C0000A0600FE549400FC8404040484FC0508F1
:1030D00008060000285000B0C8888888050808063F
:1030E00000004020007088888870040A0A0602FEEA
:1030F00030408090909090909090040A0A0600FED4
:10310000C0201090909090909090060707060001C4
:10311000448C8C8480403C06070706000188C4C4A8
:10312000840408F00505050600012000F8002005CC
:10313000080806000040F0C888889878100508083C
:10314000060000E0F88888888888F80505050600EC
:10315000012030F830200508080600002070F82013
:10316000202020E00509090600FF2070A8A8B888E3
:103170008850200509090600FFE080C0B0A8A830EB
:1031800028280509090600FFF8A88888888888A8E3
:10319000F8050A0A0600FE205050505088A8A8885A
:1031A00070000B0B00FF0901CF039E20FFFF0AFFF9
:1031B00009FF0000000600010109090602008080E5
:1031C00080808080000080050303060006D84890B8
:1031D0000609090600002828287C28FC50505005C4
:1031E00009090600002070A8A07028A87020060A0F
:1031F0000A0600FF48A8A8B050285454948805092E
:10320000090600002050505060A890906802030307
:10321000060206C04080030A0A0601FF20404080E3
:10322000808080404020030A0A0601FF8040402041
:1032300020202040408005070706000120A87020BC
:1032400070A820050707060001202020F820202074
:10325000020303060200C04080050101060004F8D5
:103260000102020602008080050A0A0600FF080823
:1032700010102020404080800509090600002050E1
:103280008888888888502003090906010040C040CA
:103290004040404040E00509090600007088880869
:1032A00010204088F80509090600007088080830D9
:1032B0000808887005090906000010303050509049
:1032C000F8103805090906000078404040700808E9
:1032D000887005090906000070888080F088888859
:1032E00070050909060000F8880810102020202029
:1032F000050909060000708888887088888870052C
:103300000909060000708888887808088870010715
:103310000706020180800000008080020707060285
:1033200000C0C00000C04080050A0A0600FF081067
:103330002040808040201008050303060002F800AA
:10334000F8050A0A0600FF804020100808102040F7
:1033500080050909060000708888102020200020C0
:10336000060A0A0600FF3048B4D4D4D4D4A8807822
:103370000509090600002020205050708888880523
:103380000909060000F0888888F0888888F0050917
:10339000090600003048888080808048300509098F
:1033A000060000E090888888888890E00509090672
:1033B0000000F8808080F0808080F8050909060010
:1033C00000F8808080F08080808005090906000078
:1033D00030488080809888483005090906000088B8
:1033E000888888F888888888030909060100E040F1
:1033F000404040404040E0050909060000381010F8
:10340000101010109060050909060000888890A02F
:10341000E090908888050909060000E0404040409F
:10342000404048F80509090600008888D8D8A8A8AF
:10343000A8888805090906000088C8C8A8A8A8980F
:103440009888050909060000708888888888888817
:1034500070050909060000F048484870404040E007
:103460000509090600007088888888E898700805B2
:103470000909060000F0888888F0A090888805096E
:10348000090600007088888070088888700509091E
:10349000060000F8A8202020202020700509090639
:1034A000000088888888888888887005090906004F
:1034B0000088888850505020202005090906000007
:1034C000A8A8A8A8F850505050050909060000887F
:1034D00088505020505088880509090600008888C7
:1034E00050502020202020050909060000F88810EF
:1034F0001020204088F8030A0A0602FFE08080803E
:103500008080808080E0050A0A0600FF80804040BD
:10351000202010100808030A0A0601FFE0202020DE
:103520002020202020E00503030600062050880507
:1035300001010600FFF8030303060106C040200551
:103540000606060000E01070909068050909060064
:1035500000808080F0888888C8B0050606060000D4
:1035600070888080887005090906000008080878BE
:1035700088888898680506060600007088F88088A4
:1035800070050909060000304840F040404040E026
:103590000507070600FF689090609088700509098C
:1035A000060000808080B0C88888888803090906E2
:1035B0000100400000C040404040E0040A0A06000C
:1035C000FF1000003010101010906005090906006F
:1035D0000080808890A0C0A090880309090601009F
:1035E000C040404040404040E0050606060000D094
:1035F000A8A8A8A8A8050606060000B0484848489C
:103600004805060606000070888888887005070748
:103610000600FFF08888F08080800507070600FF1D
:1036200078888888780808050606060000D0684073
:103630004040E005060606000070886010887005AE
:1036400008080600004040F04040404830050606AB
:1036500006000088888888986805060606000088A5
:103660008850502020050606060000A8A8A8505043
:1036700050050606060000885020205088040707E1
:103680000601FF909050502020C00506060600005D
:10369000F888102048F8030A0A0601FF204040403D
:1036A000408040404020010B0B0602FF808080805C
:1036B00080808080808080030A0A0601FF8040406D
:1036C0004040204040408004020206010450A00A0D
:1036D0000A140B00FF30404840854079404940497A
:1036E000405940404044403DC00A0A140B00FF04CA
:1036F00000FFC090401F0031004E001100FFC021AC
:10370000003F00090A140B01FF0800FF80A0801889
:103710000048002800FF8008003600C1800B0A1412
:103720000B00FF71006300A4C0AF80F0001240598D
:1037300080948011002FE0090A140B01FF0800FF9C
:103740008080807F0022007D0008007F000800FF4D
:1037500080090A140B01FF08000800FF8088808898
:1037600080FF8088800800080008000A0A140B0007
:10377000FF08000400FFC0110011000A0004000A45
:103780000031C0C080090A140B01FF0800FF800847
:103790000008007F002200140008003600C1800AE3
:1037A0000A140B00FF210027C0F1002FC030806FEA
:1037B000C0A8802480208063800A0A140B00FF4583
:1037C000002FC0090019002FC02900CFC0490049AF
:1037D000004FC0090A140B01FF3F0052008C003259
:1037E00000C1807F0049007F0049007F000A0A1461
:1037F0000B00FF27C02100F90021003900E1002162
:10380000002900E70042000A0A140B00FF7BC042B7
:103810004042407A4042404A405240E2C0420002A8
:1038200000090A140B01FF1000FF8010002F8061B7
:1038300000A2003F80220022002E000A0A140B0082
:10384000FF610057C04140F7C0510053C056405B74
:10385000C0524043C0090A140B01FF080008000FC2
:10386000000800FF8008000C000A00090008000999
:103870000A140B01FFFF000100010041007F00401E
:10388000004000408040803F800A0A140B00FF2166
:10389000C026007FC022002EC0EA402EC02A402F42
:1038A000C06840090A140B01FF3000080008000836
:1038B000000800080014002200410080800A0A1459
:1038C0000B01FF45004400FF8048006900CD005611
:1038D0000052004500C8C0090A140B01FF08004946
:1038E00000490049007F000800888088808880FFA8
:1038F00080090A140B01FF10000900FF800800086E
:10390000007F00080008000900FF800A0A140B006D
:10391000FFFFC0120003807C00250024407FC016FA
:103920000025804440090A140B01FF220014007F87
:103930000049007F0049007F000800FF8008000761
:103940000A0A0B02FF3020FE82FE82FE82FE820AFD
:103950000A140B00FF7200020007C0FA4022402246
:103960004042404A40FC400980090A140B01FFFF15
:1039700080220022002200FF80220022002200423A
:103980000082000A0A140B00FF21002200FC4057AD
:10399000C0500057C05440244057C09440090A14F6
:1039A0000B01FF220014007F0008000800FF8008C0
:1039B0000014002200C1800909120B01004F80A0F1
:1039C000808480BE808C809480A480C48081800AA2
:1039D0000A140B00FF040027802400FFC004001419
:1039E0000024804100060078000A0A140B00FF44FE
:1039F0008024800FC00480E4802FC0248028805061
:103A0000008FC00B0A140B00FF77C054005600A5AE
:103A100080748015803540D440140017E0090A14E2
:103A20000B01FFFF808080BE80A280A280BE80A2AA
:103A3000808080FF8080800A0A140B00FF7FC044D2
:103A4000005F8050805F8050805F805500A480CCF4
:103A500040090A140B01FF08000F8008007F004294
:103A60000042007E000000908012000A0A140B0140
:103A7000FF8F0049000900C1C05F004900460042B5
:103A8000004D0010C00A0A140B00FF04007FC04064
:103A9000403F80040024002780240054008FC00A87
:103AA0000A140B00FF77C0120027C09D4075402507
:103AB000402540260022402C000A0A140B00FF2259
:103AC00000FA0027803280E68023C06440128049DB
:103AD0004089400A0A140B00FFE7C0A480AB00C471
:103AE000C0A900AFC0A500EFC0810081000A0A1480
:103AF0000B00FF4F8028808F8058802F80C0005F90
:103B0000C0554055407FC00A0A140B00FF0800FF53
:103B1000808880FF808880FF8088800800084007B8
:103B2000C00A0A140B00FF5FC0310097C054403731
:103B3000C03440D7C0510055806B400A0A140B01B5
:103B4000FF42005F80EA0046004DC0D900490049AD
:103B500000490011000A0A140B00FF14005400571A
:103B6000C054805C8052807280D100128014400A60
:103B70000A140B00FF1A00E3C02440FA802700312A
:103B8000C06E40A28021002E000A0A140B00FF0123
:103B900000F10047C0A540FD4027C03540E5402763
:103BA000C024400A0A140B00FF82005FC002000F0D
:103BB00080EA802F8026002A8052408FC00A0A1493
:103BC0000B00FF04007FC049007FC049005F8049AF
:103BD0000046008900B0C0090A140B01FF2400143C
:103BE00000440024000400FF80080014002200C1EB
:103BF000800A0A140B00FF04007FC042007FC0420D
:103C0000004B0052805280A240A2400A0A140B00CE
:103C1000FF7F80408052804A80448044804A8052A6
:103C200080408080400909120B01FF7F807F804027
:103C3000007B806A8048808A80EC8019800A0A14A0
:103C40000B00FF22002FC0F840250028807040AFF5
:103C5000802200A2005FC00A0A140B00FF50407DC2
:103C60004091407F4011407D40554054405C4011A0
:103C7000C00A0A140B00FF3F8020803F802080FF95
:103C8000C048007BC04A40FD800A40090A140B016D
:103C9000FF08000800FF8008000800080014002248
:103CA00000410080800A0A140B00FF040004000495
:103CB00000150024804440844024001C00080009B2
:103CC0000A140B01FFFF8088808880FF808880882D
:103CD000809480A280FF8080800A0A140B01FFA2DA
:103CE000003400FBC0B4800480F300530071002254
:103CF00080CC000A0A140B00FF22003FC020006F96
:103D000080A0002F8020002F8028802F800A0A1496
:103D10000B00FF08003F8020803F8020803F8020F4
:103D2000803F8054809F40090A140B01FF7F0049A7
:103D3000007F0049007F0022005300928022004251
:103D4000000A0A140B00FFFFC008007F8052805E4B
:103D50008052805E8052807F804080090A140B016F
:103D6000FF7F0008000800FF8014001400140024E6
:103D700080448083800A0A140B00FF200023C0FACD
:103D8000402A402A402A402A402A404BC092400AFA
:103D90000B160B00FF20003FC020005F80948012B4
:103DA00080FFC024803FC0008003000A0A140B007B
:103DB000FF4F80200000001FC0E200248029C03E89
:103DC0004050008FC00A0A140B00FF2F8028802863
:103DD000806F80A2003FC0220027002A8032400965
:103DE0000A140B01FF22007F001100FF802A00D17E
:103DF000802400190002007C00090A140B01FF2333
:103E000000FA80FF804200FA80AB00F9002900F33D
:103E10008024000A0A140B00FF22002FC0B200A564
:103E200000A94035802500230024802840090A1479
:103E30000B01FF3F806100BF0021003F0010003FE9
:103E40000052008C0073800A0A140B00FF7FC040F0
:103E500000400040004000400040004000800080E2
:103E6000000A0A140B00FF7C4045407D4051407D14
:103E7000405540554054409C4090C00A0A140B00E5
:103E8000FF23C0FA005200FBC02280FA8022807219
:103E900080AC806080090A140B01FF5F8012801FD4
:103EA00080D2805780578075805780208001800A9B
:103EB0000A140B00FFFF0055C07D40588095407FDD
:103EC000C0040027802400FFC00B0A140B00FFFB76
:103ED000C052007BE02480F4803F0020803F80209F
:103EE000803F800A0A140B00FF22002FC0200067C9
:103EF00080A4802FC030402F8021002300090A14A5
:103F00000B01FF5200BA80B600DF809200D3001E82
:103F1000805A0092001F800A0B160B01FF42008F8F
:103F200080A200BFC0C8808600AA00DFC01400E7DE
:103F30008018000A0A140B00FF0400040004002487
:103F40000027802400240024002480FFC0090A14D4
:103F50000B01FF08000800FF8088808880FF8088B0
:103F6000808880FF8080800A0A140B00FF120012F4
:103F7000002FC06200A20027002A803240220022C7
:103F8000000A0A140B01FFEF80A880AF80EA80AA24
:103F900000EFC0AA00E900A8C00040FFFFFFFFFF3C
:103FA000FFFFFFFFFF060A0A0B0300201000007846
:103FB000888888887C0609090B0201200000708827
:103FC0008888887CFFFFFFFFFFFF050A0A0B0300BC
:103FD000403000007088F8808870050A0A0B0300E2
:103FE000102000007088F88088700509090B030113
:103FF0007008007088F8808870FF030A0A0B0400BC
:1040000080400000C040404040E0030A0A0B04002A
:1040100040800000C040404040E0FFFFFFFF050936
:10402000090B0300402000708888888870050A0A00
:104030000B030010200000708888888870FFFFFF45
:104040000807070B0101181800FF001818FF0609E0
:10405000090B0200201000CC4444444C340B0306EE
:104060000B00030080FFE000C0030B0B0B04FF40BC
:1040700040E040404040404040400609090B0200FB
:10408000440000CC4444444C34FFFFFF00002100B6
:10409000240027002A0000002200250028002B0011
:1040A0000000200023002600290002020202020272
:1040B00002020404040404040404030303030303CA
:1040C00003030101010101010101010204081020A3
:1040D00040800102040810204080010204081020E2
:1040E000408080402010080402010000000102000E
:1040F00000000000000004030706000000000000AC
:104100000000000000000000000002494E46494E39
:104110004954594E414ECDCCCC3D0AD7233C17B71C
:10412000D13877CC2B329595E6241FB14F0A000089
:1041300020410000C84200401C4620BCBE4CCA1BA7
:104140000E5AAEC59D7400407A10F35A00A0724E0C
:1041500018090010A5D4E80000E87648170000E42C
:104160000B54020000CA9A3B000000E1F505000074
:1041700080969800000040420F000000A0860100D9
:104180000000102700000000E803000000006400A9
:10419000000000000A000000000001000000000014
:1041A0002C76D888DC674F0823DFC1DFAE59E1B138
:1041B000B796E5E3E453C63AE651997696E8E6C247
:1041C0008426EB898C9B62ED407C6FFCEFBC9C9F4E
:1041D00040F2BAA56FA5F490055A2AF75C936B6C70
:1041E000F9676DC11BFCE0E40D47FEF520E6B50064
:1041F000D0ED902E0300943577050080841E0800D2
:1042000000204E0A000000C80C333333330F986E81
:1042100012831141EF8D2114893BE65516CFFEE63E
:10422000DB18D1844B381BF77C1D901DA4BBE42404
:10423000203284725E228100C9F124ECA1E53D2781
:10424000E43DC740E0C0F3C7C04011241FBECFEF1C
:10425000D0E4DEBFCDBF14E0A0E0B1E0EEE8F7EBC4
:1042600001E00BBF02C007900D92A838B107D9F743
:104270001BBE1BE1A8E8B4E001C01D92A531B10747
:10428000E1F712E4C8E4D2E404C02297FE010E94E0
:104290006CDBC034D107C9F70E9476D20C94BADB2C
:1042A0000C940000EF92FF920F931F93F22FF02EC9
:1042B00047FD02C0E4E001C0E4E1242F332727FDDD
:1042C000309537FF03C0309521953F4F4F2D512F2B
:1042D0000F2FEE2E0E94F5268F2D912F1F910F91FB
:1042E000FF90EF900895A0E0B0E0E9E7F1E20C94D0
:1042F0008BDBEC01A880B980CA80DB80A114B104FB
:10430000C104D10441F484E2A82E89EDB82E8BE5D6
:10431000C82E87E0D82EC601B5012DE133EF41E06C
:1043200050E00E944FDB27EA31E440E050E00E9479
:10433000E7DA7B018C01C601B5012DE133EF41E0E5
:1043400050E00E944FDBCA01B9012CEE34EF4FEF71
:104350005FEF0E94E7DA6E0D7F1D801F911F97FFB0
:1043600004C06150704080409048688379838A839C
:104370009B839B01AC015F77B901CA01CDB7DEB762
:10438000EAE00C94A7DB0E94732108958EE593E088
:104390000E947321089560935E0370935F0380937E
:1043A0006003909361030895A0E0B0E0EAEDF1E2CC
:1043B0000C9489DBEC015B016115710519F0FB01BF
:1043C00091838083F9908F2D90E00E9470DB892B80
:1043D000C9F7FDE2FF1621F4F990EE24E39405C03D
:1043E0002BE2F21609F4F990EE248E0101501040F0
:1043F000C8016BE071E443E050E00E946324892B24
:1044000001F58E010E5F1F4FC8016EE071E445E0BB
:1044100050E00E946324892B19F48E01095F1F4F1D
:10442000A114B10419F0F50111830083E0FC04C06C
:1044300070E090E080E814C070E090E080E86FEFFA
:1044400008C1C80163E171E443E050E00E946324C5
:10445000892B69F4A114B10429F470E090E080EC98
:104460006FE7F7C02296F501D183C083F6CF882489
:10447000992440E050E060E070E0EF2DE053EA3036
:10448000A0F5F2E0EF2A8E2D90E09C0128703070AC
:10449000E2FE06C0232B79F50894811C911C2BC0E9
:1044A000232B19F0089481089108DB01CA0112E05E
:1044B000880F991FAA1FBB1F1A95D1F7480F591FC4
:1044C0006A1F7B1F440F551F661F771F4E0F511D1C
:1044D000611D711D483929E9520729E9620729E15F
:1044E000720748F084E0E82A06C0EE3F31F4E3FCAE
:1044F00039C098E0E92AF990C0CFE53311F0E531F1
:1045000089F529912D3219F4E0E1EE2A05C02B320C
:1045100019F081E090E003C0299182E090E0E22F61
:10452000E053EA3018F0C81BD90B1CC020E030E083
:10453000FCE020383F075CF4C901880F991F880F01
:10454000991F280F391F220F331F2E0F311DE9919C
:10455000E053EA3068F3E4FE03C0309521953F4F05
:10456000820E931ECE2CDD24E1FE07C0A114B104FF
:1045700021F02197F501D183C083CB01BA010E94BC
:10458000D5D77B018C01F3E0CF22DD2423E0C216D6
:10459000D10421F417FB109517F910955701680104
:1045A000C801B70120E030E040E050E00E9435D77C
:1045B000882309F44AC097FE0DC02AE2E22E21E4C6
:1045C000F22E9094819491089394C0E2D0E000E0A0
:1045D00010E012C092E4E92E91E4F92EF6CFF70133
:1045E0002591359145915491C601B5010E9415DA86
:1045F0005B016C018C1A9D0A8C169D0684F7D5957B
:10460000C7950F5F1F4F0630110529F08CEF9FEF04
:10461000E80EF91EF1CFC501D6017C018D018C2D6C
:10462000880F8D2D881F8F3F51F0C601B50120E006
:1046300030E040E050E00E9435D7882331F482E238
:1046400090E09093141B8093131B7E2D9F2D802F41
:10465000612F272F392F482F562FB901CA01CDB707
:10466000DEB7ECE00C94A5DB2F923F925F926F9245
:104670007F928F929F92AF92BF92CF92DF92EF92F2
:10468000FF920F931F93CF93DF938C011B01EA01DD
:104690006115710519F0FB0191838083209749F022
:1046A000CE010297839728F020E030E040E050E010
:1046B000F6C0F801A1908F018A2D90E00E9470DB76
:1046C000892BB9F7FDE2AF1631F4F801A1908F0103
:1046D0005524539407C0FBE2AF1619F4F801A190DA
:1046E0008F015524209719F0C031D105C1F4F0E3B2
:1046F000AF1679F4F8018081883711F0883549F4D4
:10470000F801A1800E5F1F4FF2E05F2AC0E1D0E008
:1047100006C0209721F480E3A816E9F427C0C8302A
:10472000D10531F1C930D10524F4C230D10531F5BC
:104730000CC0CA30D10589F0C031D105F9F4C12CC3
:10474000D12CE12CB8E0FB2E28C0C12CD12CE12CBF
:10475000A0E4FA2E22C0CAE0D0E0FCECCF2EFCECA4
:10476000DF2EFCECEF2EFCE0FF2E17C0C8E0D0E0FF
:10477000C12CD12CE12CE0E1FE2E0FC09E0144277C
:1047800037FD4095542F60E070E080E090E80E9493
:104790002DDBC901DA016C017D0120E030E040E051
:1047A00050E060E03E01882477FC8094982C70ED06
:1047B000B72EBA0CE9E0EB1570F48A2D81548A31DA
:1047C00018F499ECB92E06C08A2D81568A3150F51D
:1047D00089EAB82EBA0C8B2D90E08C179D0714F542
:1047E0006F3FE1F0C216D306E406F506B0F0CA0149
:1047F000B901A40193010E94E7DA9B01AC012B0DE2
:10480000311D411D511D2130F0E03F07F0E04F0701
:10481000F0E85F0710F461E001C06FEFF801A190CC
:104820008F01C5CF2114310481F0662331F001508E
:104830001040F1011183008308C051FE1AC00250DC
:104840001040F1011183008314C067FF12C050FCB7
:1048500005C02FEF3FEF4FEF5FE704C020E030E0EF
:1048600040E050E882E290E09093141B8093131B89
:1048700016C050FE08C050954095309521953F4F89
:104880004F4F5F4F0CC057FF0AC082E290E09093F9
:10489000141B8093131B2FEF3FEF4FEF5FE7B9011E
:1048A000CA01DF91CF911F910F91FF90EF90DF90A0
:1048B000CF90BF90AF909F908F907F906F905F90C0
:1048C0003F902F900895FB01DC014150504088F04B
:1048D0008D9181341CF08B350CF4805E65916134D0
:1048E0001CF06B350CF4605E861B611171F3990B43
:1048F0000895881BFCCFFB01DC014150504048F07B
:1049000005900D920020C9F701C01D924150504002
:10491000E0F70895FB0155915523A9F0BF01DC0193
:104920004D9145174111E1F759F4CD010590002053
:1049300049F04D9140154111C9F3FB014111EFCFF1
:1049400081E090E001970895FB01DC0104C08D91A6
:104950000190801921F441505040C8F7881B990BF1
:104960000895FB01DC0102C001900D9241505040BE
:10497000D8F70895FB01DC010D900020E9F71197AD
:1049800001900D920020E1F70895FC0181918617B6
:1049900021F08823D9F7992708953197CF010895F9
:1049A000FB01DC0101900D920020E1F70895FB016D
:1049B000DC014150504030F08D910190801919F484
:1049C0000020B9F7881B990B0895FB01DC014150C9
:1049D000504048F001900D920020C9F701C01D928F
:1049E00041505040E0F70895AEE0B0E0EAEFF4E265
:1049F0000C9491DB0D891E898EE08C831A830983C8
:104A00008FEF9FE79E838D839E01275E3F4FCE01F0
:104A100001966F89788DA9010E9418252F8138850C
:104A2000020F131FF80110822E96E4E00C94ADDB08
:104A3000ABE0B0E0EEE1F5E20C9483DB3C012B014E
:104A40005A01FC0117821682838181FD03C06FEF3A
:104A50007FEFC6C19AE0892E1E010894211C311CEB
:104A6000F3012381F20123FD859123FF81912F0121
:104A7000882309F4B2C1853239F423FD859123FFDF
:104A800081912F01853229F490E0B3010E944529DC
:104A9000E7CF982FFF24EE249924FFE1FF15D0F0F3
:104AA0009B3269F09C3228F4903259F0933291F4A1
:104AB0000EC09D3249F0903369F441E024C052E0C9
:104AC000F52A84E0F82A28C098E0F92A25C0E0E118
:104AD000FE2A22C0F7FC29C0892F80538A3070F447
:104AE000F6FE05C0989C902C1124980E15C0E89CE9
:104AF000E02C1124E80EF0E2FF2A0EC09E3229F4C9
:104B0000F6FC6BC140E4F42A07C09C3619F450E867
:104B1000F52A02C0983649F4F20123FD959123FF4E
:104B200091912F01992309F0B8CF892F85548330B3
:104B300018F08052833038F444E050E0A40EB51EE3
:104B40005FE359830FC0933631F0933779F0933593
:104B500009F056C020C0F5018081898342E050E011
:104B6000A40EB51E610101E010E012C0F501C08085
:104B7000D180F6FC03C06FEF7FEF02C0692D70E0BB
:104B800042E050E0A40EB51EC6010E943A298C01F5
:104B90005FE7F52214C0F501C080D180F6FC03C0A8
:104BA0006FEF7FEF02C0692D70E042E050E0A40E8D
:104BB000B51EC6010E942F298C0150E8F52AF3FE8C
:104BC00007C01AC080E290E0B3010E944529EA9430
:104BD0008E2D90E008171907A8F30EC0F601F7FC18
:104BE0008591F7FE81916F0190E0B3010E94452904
:104BF000E110EA94015010400115110579F7EAC05F
:104C0000943611F0993669F5F7FE08C0F501208158
:104C100031814281538184E090E00AC0F5018081B6
:104C200091819C01442737FD4095542F82E090E00C
:104C3000A80EB91E9FE6F92257FF09C0509540956E
:104C4000309521953F4F4F4F5F4FE0E8FE2ACA0154
:104C5000B901A1012AE030E00E947129D82ED218B2
:104C600040C0953729F41F2D1F7E2AE030E01DC07B
:104C70001F2D197F9F3661F0903720F4983509F089
:104C8000ACC00FC0903739F0983709F0A6C004C007
:104C900028E030E00AC0106114FD146020E130E02B
:104CA00004C014FD166020E132E017FF08C0F501D2
:104CB000608171818281938144E050E008C0F501F8
:104CC00080819181BC0180E090E042E050E0A40E40
:104CD000B51EA1010E947129D82ED2188FE7F82E97
:104CE000F122F6FE0BC05EEFF522D91438F4F4FE83
:104CF00007C0F2FC05C08FEEF82202C01D2D01C0D6
:104D0000192DF4FE0DC0FE01ED0DF11D80818033E3
:104D100019F499EEF92208C01F5FF2FE05C003C026
:104D20008F2D867809F01F5F0F2DF3FC14C0F0FE65
:104D30000FC01E1510F09D2C0BC09D2C9E0C911ABF
:104D40001E2D06C080E290E0B3010E9445291F5F3E
:104D50001E15C0F304C01E1510F4E11A01C0EE24A4
:104D600004FF0FC080E390E0B3010E94452902FFD9
:104D70001DC001FD03C088E790E00EC088E590E00B
:104D80000BC0802F867891F001FF02C08BE201C03A
:104D900080E2F7FC8DE290E0B3010E94452906C055
:104DA00080E390E0B3010E9445299A94D914C0F39E
:104DB000DA94F101ED0DF11D808190E0B3010E94C4
:104DC0004529DD20A9F706C080E290E0B3010E94EA
:104DD0004529EA94EE20C1F743CEF301668177813D
:104DE000CB012B96E2E10C949FDBA9E0B0E0EBEF66
:104DF000F6E20C9487DB6A01122FA02EBE2C2BE367
:104E0000201718F42CE3922E02C0902E9394AE013A
:104E10004F5F5F4F27E0092D0E945728BC01898111
:104E2000E82EFF24C70189709070019711F4ADE25C
:104E300009C0B1FE02C0ABE205C0B0FC02C0A0E0F8
:104E400001C0A0E2E3FE3BC0AA2311F423E001C0AD
:104E500024E0211710F020E002C0121B212FEB2CC0
:104E6000B4FE02C0322F0AC0F601322F80E202C027
:104E7000819331503323E1F7C20ED11CAA2319F0DC
:104E8000F601A1936F01F6013196E2FE05C09EE4A2
:104E9000D6019C9381E404C09EE6D6019C9381E6F2
:104EA00011968C9391833296DF01832F90E202C09A
:104EB0009D9381508823E1F7E30FF11D40C0E2FE8E
:104EC00042C0AA2311F423E001C024E0211710F00E
:104ED00020E002C0121B212FEB2CB4FE02C0922F47
:104EE0000AC0F601922F80E202C08193915099236B
:104EF000E1F7C20ED11CAA2319F0F601A1936F01AC
:104F0000F6013196E2FE08C089E4D6018C938EE466
:104F100011968C9386E407C089E6D6018C938EE6C1
:104F200011968C9386E681833296DF01892F20E2E9
:104F300002C02D9381508823E1F7E90FF11D108203
:104F40002EEF3FEFAFC0161617061CF041E050E001
:104F500003C0AB014F5F5F4FAA2019F480E090E0DF
:104F600003C08A2D90E0019620E030E0AA2311F0E2
:104F700021E030E0240F351F280F391F812F90E0EA
:104F80002817390714F020E002C0121B212F4B2DE7
:104F900050E0CA0180719070B4FC0DC0B3FC0BC02E
:104FA000F601322F40E202C0419331503323E1F742
:104FB000C20ED11C01C0322FAA2319F0F601A19311
:104FC0006F01892B11F0132F0AC0F601132F80E314
:104FD00002C0819311501123E1F7C30ED11C092D9A
:104FE000060FBA8090E1892E912C8E209F20E4FE3E
:104FF00004C0F1E3BF1609F40150101614F001E0EB
:1050000003C0093008F008E09B0177FF02C020E0F0
:1050100030E0CB010196821B930BFE013196E80F25
:10502000F91F8EE2F82E3B01601A71088A2D90E07C
:1050300044275527481B590B8FEF2F3F380719F48A
:10504000D601FD926D01621773072CF0621673068C
:1050500014F4808101C080E3215030403196241740
:10506000350724F0D6018D936D01E6CF261737075B
:1050700049F4B5E3BB1528F0BB1621F48114910463
:1050800009F481E3F6018193D601812F90E202C0F9
:105090009C93815011968823D9F7E10FF11D10825E
:1050A00020E030E0C9012996EEE00C94A3DB283023
:1050B00008F027E03327DA01990F311D87FD916051
:1050C00000966105710539F432602E5F3D9330E33F
:1050D0002A95E1F708959F3F30F08038710561050A
:1050E00009F03C5F3C5F3D93913008F08068911D72
:1050F000DF93CF931F930F93FF92EF92192F987F17
:105100009695E92F96959695E90FFF27E056FE4B69
:1051100099273327EE24FF24A701E701059008947F
:10512000079428F4360FE71EF81E491F511D660F1D
:10513000771F881F991F0694A1F70590079428F4FC
:10514000E70EF81E491F561FC11D770F881F991FB4
:10515000661F0694A1F70590079428F4F80E491FDE
:10516000561FC71FD11D880F991F661F771F0694F2
:10517000A1F70590079420F4490F561FC71FD81FA9
:10518000990F661F771F881F0694A9F784911095C1
:10519000177041F0D695C79557954795F794E794C2
:1051A0001A95C1F7E6E4F1E46894159015913591EC
:1051B0006591959105907FE27395E118F10A430B93
:1051C000560BC90BD009C0F7E10CF11E431F561F47
:1051D000C91FD01D7EF4703311F48A95E6CFE89490
:1051E000015030F0080F0AF40027021708F4202FAE
:1051F0002395022F7A3328F079E37D932A95E9F7F6
:1052000010C07D932A9589F60694979567953795F2
:1052100017951794E118F10A430B560BC90BD009E7
:1052200098F023957E9173957A3308F070E37C9320
:105230002013B8F77E9170617D9330F0839571E310
:105240007D9370E32A95E1F71124EF90FF900F9181
:105250001F91CF91DF91992787FD90950895FC01CB
:105260000590615070400110D8F7809590958E0F91
:105270009F1F0895FC016150704001900110D8F704
:10528000809590958E0F9F1F08950F931F93CF9336
:10529000DF938C01EB018B8181FF1BC082FF0DC06E
:1052A0002E813F818C819D812817390764F4E88124
:1052B000F9810193F983E88306C0E885F985802F99
:1052C0000995892B31F48E819F8101969F838E836E
:1052D00002C00FEF1FEFC801DF91CF911F910F9117
:1052E0000895FA01AA27283051F1203181F1E8947C
:1052F0006F936E7F6E5F7F4F8F4F9F4FAF4FB1E0C9
:105300003ED0B4E03CD0670F781F891F9A1FA11DC3
:10531000680F791F8A1F911DA11D6A0F711D811DC4
:10532000911DA11D20D009F468943F912AE0269F89
:1053300011243019305D3193DEF6CF010895462FE8
:105340004770405D4193B3E00FD0C9F7F6CF462FC9
:105350004F70405D4A3318F0495D31FD4052419332
:1053600002D0A9F7EACFB4E0A695979587957795EF
:105370006795BA95C9F700976105710508959B0176
:10538000AC010A2E06945795479537952795BA95FF
:10539000C9F7620F731F841F951FA01D0895FC019C
:1053A000128213820895FC018381882311F081E029
:1053B00082830895FC018281811112820895CF9326
:1053C000DF93DC01FC01EB55FE4F8081918100975A
:1053D000C9F1019791838083ED01CC5ADF4FFD0124
:1053E000ED58FF4F8BE1019009928150E1F7FD01EB
:1053F000EE5AFF4FAF58BF4F8D919C911197A15717
:10540000B04091838083FD01ED58FF4F20E030E0F4
:10541000AD014B555E4F10C02F5F3F4FEF01DF01D5
:105420005F968BE10D9009928150E1F7858D968D05
:10543000329791838083B196DA018D919C912817E0
:10544000390750F3DF91CF910895FC0181E694E094
:10545000918380838781882321F0CF0104960E9465
:105460002F82089583519E4F0E942F820895CF92DC
:10547000DF92EF92FF920F931F93DF93CF93CDB7FD
:10548000DEB76F970FB6F894DEBF0FBECDBF8C01AD
:105490006B01095A1F4FD8018C9107551040882382
:1054A00021F42FE2E22EF12C03C090E5E92EF12C3D
:1054B000E00EF11E81E694E09A8389831C821B82B0
:1054C00018861D82B7016C5F7F4FCE010596A6013D
:1054D00021E00E943D89882391F5E3EEF0E094916C
:1054E00008C08091C00085FFFCCF9093C600319624
:1054F00094919923B1F7E9EEF0E0949108C080917E
:10550000C00085FFFCCF9093C600319694919923FB
:10551000B1F709C08091C00085FFFCCF0894C11C81
:10552000D11C9093C600F6019081992399F7809140
:10553000C00085FFFCCF8AE08093C6005AC0F80106
:10554000EB55FE4F208131812A30310508F040C0F3
:105550002F5F3F4F3183208321503040F90185E098
:10556000EE0FFF1F8A95E1F7E21BF30BED58FF4F9B
:10557000E00FF11F13C0AF01415E5F4FBF018BE130
:10558000DB010D90BD01DA010D92AD018150C1F733
:10559000929182913296968F858F7F9721503040DD
:1055A000BFEF2E3F3B0739F7D801AD58BF4FF7018A
:1055B00034968BE101900D928150E1F70F581F4F07
:1055C000F70182819381D8018D939C9301571040FC
:1055D000D801AC5ABF4FFE0135968BE101900D9278
:1055E0008150E1F70E5A1F4F8B819C81F801918306
:1055F0008083CE0101960E94252A6F960FB6F894FB
:10560000DEBF0FBECDBFCF91DF911F910F91FF90F5
:10561000EF90DF90CF9008959C01AB0183519E4F96
:105620002D5C3F4FB90121E00E943D8908950F9301
:105630001F93FC01162F072F242F8381882309F441
:1056400063C0E051FE4F8081E05FF140882309F0A4
:105650005BC0CF0183519E4FF396BF01412F502F66
:105660000E943D89882361F5E8EDF2E0949108C03D
:105670008091C00085FFFCCF9093C6003196949135
:105680009923B1F7812F902F9C01F90107C08091D8
:10569000C00085FFFCCF31969093C600908199237E
:1056A000B1F7E5EDF2E0949108C08091C00085FF6C
:1056B000FCCF9093C600319694919923B1F724C002
:1056C000E3ECF2E0949108C08091C00085FFFCCF2C
:1056D0009093C600319694919923B1F7812F902F22
:1056E0009C01F90107C08091C00085FFFCCF319675
:1056F0009093C60090819923B1F78091C00085FFF7
:10570000FCCF8AE08093C6001F910F910895EF921D
:10571000FF920F931F938C013EECE32E31E0F32EAA
:10572000E80EF91EC7010E94E181C7010E942F8285
:10573000F801108211821F910F91FF90EF90089550
:10574000CF92DF92EF92FF920F931F93CF93DF934D
:105750007C016B01DB010D900020E9F78D01015008
:105760001040061B170BEEECF1E0EE0EFF1ED7010A
:105770001C92E2E3FEEFEE0EFF1ECB016EE470E042
:105780000E94C524EC01009731F4F8013197EC0D2B
:10579000FD1D86010EC060E270E00E94C5248C01F0
:1057A0000F5F1F4FCE016AE270E00E94C524FC012A
:1057B00031978DE081838AE082831382C70186530B
:1057C0009E4FB8010E943F8A8EEC91E0E80EF91ED0
:1057D000D7018C91882319F1E3E1F1E0949108C09D
:1057E0008091C00085FFFCCF9093C60031969491C4
:1057F0009923B1F7EAE1F1E0949108C08091C000EB
:1058000085FFFCCF9093C600319694919923B1F710
:105810008091C00085FFFCCF8AE08093C600DF91B5
:10582000CF911F910F91FF90EF90DF90CF9008954F
:10583000CF93DF93EC018B81882309F43BC0E2E432
:10584000F1E0949108C08091C00085FFFCCF909357
:10585000C600319694919923B1F7CE55DD4F48811A
:1058600059816A817B81C25AD2408CE095E02AE05E
:1058700030E00E947F3EE0E4F1E0949108C0809126
:10588000C00085FFFCCF9093C60031969491992378
:10589000B1F7C656DD4F488159816A817B818CE022
:1058A00095E02AE030E00E947F3E8091C00085FFB5
:1058B000FCCF12C0E0E3F1E0949108C08091C000F9
:1058C00085FFFCCF9093C600319694919923B1F750
:1058D0008091C00085FFFCCF8AE08093C600DF91F5
:1058E000CF9108952F923F924F925F926F927F9245
:1058F0008F929F92AF92BF92CF92DF92EF92FF92E0
:105900000F931F93DF93CF93CDB7DEB7AC970FB64E
:10591000F894DEBF0FBECDBF5C014B01FC0183815B
:10592000882309F438C1C50182539E4F0E942F82FB
:10593000F50112821A8A1D8A198A188A81E694E072
:105940009F878E875EE4C52ED12CCA0CDB1C2FE20C
:1059500030E0A20EB31EF601B182A08221ED3FEF2E
:10596000A20EB31EF40180818F3209F090C0C401F1
:105970006FE270E00E94C5247C010894E11CF11CD8
:105980003E010894611C711C260142E1242E312C39
:105990002C0E3D1E77C0C7016FE270E00E94C52447
:1059A0006C01009709F481C0E816F90608F07DC083
:1059B0008C010E191F09C301B701A8010E94E5243B
:1059C000060D171DF8011082F30107C08091C00079
:1059D00085FFFCCF31969093C60090819923B1F753
:1059E0008091C00085FFFCCFFAE0F093C600F20181
:1059F000608171816115710519F460E070E002C089
:105A00006C5F7F4FC101A30121E00E943D89882383
:105A100071F5EEE7F1E0949108C08091C00085FF38
:105A2000FCCF9093C600319694919923B1F7FE0173
:105A3000319607C08091C00085FFFCCF31969093CE
:105A4000C60090819923B1F7ECE7F1E0949108C08A
:105A50008091C00085FFFCCF9093C6003196949151
:105A60009923B1F78091C00085FFFCCF8DC02EE057
:105A700030E02C0F3D1FF201318320837601089422
:105A8000E11CF11CE114F10409F085CF0BC080E5A5
:105A900090E0A80EB91EF601B182A08220EB3FEF84
:105AA000A20EB31ED82C092D02C0DE2C0F2D8EE4C1
:105AB00090E0A80EB91EF5018081918122EB3FEFA5
:105AC000A20EB31E009719F480E090E001C0049686
:105AD0006D2D702F0E940F8A882339F1EEE6F1E0D8
